:020000040000FA
:1000000021009513210036293F00EF0803190A2823
:100010008231042A3D00101C12286521210012158E
:100020003D0010103D00901D1E280F088700901104
:1000300020007839031D21282520122820001211C4
:100040000900C62012288B172428071988282008A1
:100050003C39343C031D452830103808B81F301493
:100060000630390203195B28053039020319792853
:100070000930390203197B28083039020319812815
:100080003D000E1220000C3054200C30A00008302F
:10009000A100A01708003D000E12200030185728BC
:1000A0009620483046204830A400A4170800A41326
:1000B000A5010C30522802303B0203196B28033093
:1000C0003B0203196F2801303B02031D4028A13079
:1000D000B10012307228B330B10043307228F630CC
:1000E000B1000A30B2003E0203184B283E08B200AD
:1000F0004B28B0144B283011BA08031D3015BE2010
:100100004B28BF303019013EB1000130B2004B28FE
:1001100030188F2896200830241F09175428B01C47
:100120000800B0103A083D0096000800A413A5018D
:10013000B20803190800310884008130850020309E
:100140008600203087000301083C0319AD28120007
:100150001E00A50A2508B20BA4280408B100BB3074
:100160000402031DB628331847170800C3300402E1
:10017000031D080033080910C00008002000D52026
:100180000301AD01AC05AC06AC1708004030071AFE
:1001900008000719C128A9080319D528AC13DA20CB
:1001A0002000C9000130AD00AC174030A900A80103
:1001B000A8170800043029020319EC28403029024E
:1001C00003190029013029020319E72802345230AB
:1001D0004A02031D023401004C08C8004D08860085
:1001E0004A0887004B082300920007089100453019
:1001F0000602031D0134143095002E21151101341F
:10020000480886002A3084002030850024302300EE
:1002100095002030870012008607930012008607A1
:1002200094008703031917292E21910A0B299501A0
:100230008608031D033415152E2195018716151404
:100240000000000011001402031D04341100130209
:10025000031D04349103870B1F2901345530960088
:10026000AA3096009514000000000800FC309900A8
:1002700051301A05513C031D3829542103194629D0
:1002800020008C1D462921009517002A2700903058
:100290009B0065213D008E01210012150B173D00CA
:1002A0008E158E1D50292328840182308500003F41
:1002B000013E080020003330B30054210319080028
:1002C000022281312000B3000800210012113D00FC
:1002D000930190019B019C019D019E019F0197014B
:1002E00014309100093092008401203085006A307A
:1002F000870000301A00870B7A295A213D000E171B
:1003000096010E120E13901D882990113521832914
:10031000163098001E3099001A309A0020001830CC
:10032000A2002030A6002A30AA002930AE002030DA
:0A033000A300A700AB00AF004528B2
:0E03420012340134003402340234003400342A
:10035000083450341D34EE34EE34013400340034AB
:10036000003401340134093402344334003402349B
:10037000013400348034113409340434003400343E
:10038000013402340234013400340534243400349E
:100390001034013404342434023402340534243457
:1003A000063400340134053424340134003401347B
:1003B0000734053482340334083400347F3409347C
:1003C00004340134003402340A340034003400347C
:1003D00007340534813402344034003400340734A7
:1003E0000534013402344034003400340A34033418
:1003F000303400343034003430340034313400349C
:020000040001F9
:02000E008C0F55
:02001000CE1F01
:00000001FF
