:020000040000FA
:1000000021009513210034293F00EF08031D042A25
:100010003D00101C10286221210012153D00101017
:100020003D00901D1C280F08870090112000783992
:10003000031D1F2823201028200012110900C420AE
:1000400010288B1722280719862820083C39343CB1
:10005000031D432830103808B81F30140630390209
:100060000319592805303902031977280930390254
:10007000031979280830390203197F283D000E1230
:1000800020000C3052200C30A0000830A100A01736
:1000900008003D000E1220003018552894204830EA
:1000A00044204830A400A4170800A413A5010C3074
:1000B000502802303B020319692803303B02031920
:1000C0006D2801303B02031D3E28A130B1001230E3
:1000D0007028B330B10043307028F630B1000A30D8
:1000E000B2003E02031849283E08B2004928B01465
:1000F00049283011BA08031D3015BC204928BF30EB
:100100003019013EB1000130B200492830188D2865
:1001100094200830241F09175228B01C0800B01082
:100120003A083D0096000800A413A501B20803197F
:10013000080031088400813085002030860020309E
:1001400087000301083C0319AB2812001E00A50A12
:100150002508B20BA2280408B100BB300402031D1D
:10016000B428331847170800C3300402031D0800E1
:1001700033080910C00008002000D3200301AD019E
:10018000AC05AC06AC1708004030071A0800071988
:10019000BF28A9080319D328AC13D8202000C90010
:1001A0000130AD00AC174030A900A801A817080025
:1001B000043029020319EA28403029020319FE28D5
:1001C000013029020319E528023452304A02031D86
:1001D000023401004C08C8004D0886004A08870018
:1001E0004B08230092000708910045300602031DCA
:1001F0000134143095002C21151101344808860073
:100200002A308400203085002430230095002030DF
:100210008700120086079300120086079400870368
:10022000031915292C21910A092995018608031D16
:10023000033415152C2195018716151400000000B4
:1002400011001402031D043411001302031D0434B1
:100250009103870B1D29013455309600AA30960072
:100260009514000000000800FC30990051301A0578
:10027000513C031D362952210319442920008C1DAD
:10028000442921009517002A270090309B00622105
:100290003D008E01210012150B173D008E158E1D9D
:1002A0004E292128840182308500003F013E08004C
:1002B00020003330B300522103190800022220002D
:1002C000B3000800210012113D00930190019B0131
:1002D0009C019D019E019F019701143091000930FE
:1002E00092008401203085006A30870000301A00B7
:1002F000870B772958213D000E1796010E120E1319
:10030000901D8529901133218029163098001E30C8
:1003100099001A309A0020001830A2002030A60060
:100320002A30AA002930AE002030A300A700AB007D
:04033000AF004328AF
:0E03420012340134003402340234003400342A
:100350000834D8340434DD34DD340134003400345E
:10036000003401340134093402344334003402349B
:10037000013400348034113409340434003400343E
:10038000013402340234013400340534243400349E
:100390001034013404342434023402340534243457
:1003A000063400340134053424340134003401347B
:1003B0000734053482340334083400347F3409347C
:1003C00004340134003402340A340034003400347C
:1003D00007340534813402344034003400340734A7
:1003E0000534013402344034003400340A34033418
:1003F000303400343034003430340034313400349C
:020000040001F9
:02000E00840F5D
:02001000CE1F01
:00000001FF
