:10040000000082310B2A0800823120007F08F000B2
:100410007008FF00090082310D2AFC01EA01EB019E
:10042000A03084000030850010308A3114228231DF
:10043000813084008A308500B0308600003087002B
:100440000F308A310E2220008E31512E2000C9013A
:1004500021003A082000BF003F08DC005C0A86004B
:10046000870106300106031DF52A5C088600870116
:1004700080300106031DF52A5C08023E86008701D4
:10048000403FBF00413FC0004008C1004108D900C3
:100490005C0886008701423FDA005903031D6B2A7E
:1004A0007930B0009030B100793084009030850010
:1004B0000008BF00C0013F08B2004008B3005C085C
:1004C000063E86008701403FB400413FB5008D31B4
:1004D0003D2582313A2D023020005906031D9F2A06
:1004E0005A080319772A8A31332282313A2D2000A3
:1004F0005A35BD3E86008701403FCC00413FCD00CC
:100500004C08B0004D08B1004D08C0004C08BF00B9
:1005100002303F07840040080318400A8500003F6E
:10052000B200013FB3005C08063E86008701403FF1
:10053000B400413FB5008D313D2582313A2D033065
:1005400020005906031DCC2A5730BF003F08F10098
:100550005A088B317623823172082000CF0071084F
:10056000CE00CF1FB72A8A31332282313A2D2000A4
:100570005708B0005808B1004F08B3004E08B20049
:100580005C08063E86008701403FB400413FB5004D
:100590008D313D2582313A2D4B302000BF003F0880
:1005A000F1005C088A310322823172082000D100F8
:1005B0007108D000D11FE02A8A31332282313A2DCE
:1005C00020004B08B0000030B1005108B3005008C3
:1005D000B2005C08063E86008701403FB400413F00
:1005E000B5008D313D2582313A2D20005C0A860010
:1005F000870105300106031D0B2B2100A701A70A67
:1006000020005C0886008701423F2100A6008A3155
:10061000212282313A2D20005C0A860087010930B0
:100620000106031D262B5C0886008701423FD2008D
:1006300052088731FF2782318A31212282312000FE
:100640005208BF003F082100AE003A2D20005C0A8E
:100650008600870108300106031D422BAE30B00032
:100660000030B1000130B2000030B3005C08063E3B
:1006700086008701403FB400413FB5008D313D25E4
:1006800082313A2D20005C0A860087010108031D93
:10069000D02B5C088600870101081F39003A031D32
:1006A0006D2B8731FC27823172082000C30071084E
:1006B000C2004230B0000030B1000230B200003061
:1006C000B3005C08063E86008701403FB400413F0E
:1006D000B5008D313D2582313A2D20005C08860021
:1006E000870101081F39023A031DCC2B5C08043E28
:1006F0008600870101080F39BF003F08D300023090
:1007000053020318C82B0530BF003F08F1005308FF
:100710008A31B0228231043EB03E86008701010852
:100720002000C0004008D4005C08043E8600870119
:10073000403FBF00413FC000BF1BA12B54080139FF
:10074000A32B54080239BF00C0013F08C70040086E
:10075000C800470848040319AF2B0130B02B003004
:10076000BF003F08C400C5014430B0000030B100F4
:100770000230B2000030B3005C08063E86008701FC
:10078000403FB400413FB5008D313D2582313A2DC7
:100790008A31332282313A2D8A31332282313A2D05
:1007A00020005C0A860087010B300106031DF32B35
:1007B0005C0886008701423FF1005C08043E860029
:1007C000870101088931FE2182312000BF003F08E6
:1007D000C600C61FEF2B8A31332282313A2D8A316F
:1007E000212282313A2D20005C0A860087010A30DE
:1007F0000106031D222C5C08043E860087010108C7
:100800008931FC2182312000BF003F08D500D51F6F
:100810000D2C8A31332282313A2D55302000B00020
:100820000030B1000130B2000030B3005C08063E79
:1008300086008701403FB400413FB5008D313D2522
:1008400082313A2D20005C0A8600870101030319DA
:10085000302C5C0A8600870103300106031D382D09
:10086000CA01CA0A5C088600870101081F39023ADA
:10087000031D2D2D5C08023E860087011600010431
:10088000031D2D2D5C08043E8600870101080F39E9
:10089000BF003F08DB005C08043E860087010108BA
:1008A0008039BF003F08D60002305B0203182D2DAF
:1008B0005C0A8600870103300106031D892C560857
:1008C0000319752C0530BF003F08F1005B088A3121
:1008D000B0228231043EB03E8600870181142000A0
:1008E0005B088B31A2238231152D05302000BF001B
:1008F0003F08F1005B088A31B0228231043EB03EED
:1009000086008701011420005B088731DE278231D1
:10091000152D200056080319CA2C0530BF003F08CA
:10092000F1005B088A31B0228231033EB03E86007E
:10093000870101082000C0005B35C1000130C135CE
:10094000FF3E031D9F2C4135053E203E860087015A
:10095000400881005B35BF000130BF35FF3E031DFD
:10096000AD2C3F35043E203E860087018101F730E3
:10097000BF000530C0004008F1005B088A31B0229A
:100980008231043EB03E8600870120003F08810589
:10099000FD30052D0530BF003F08F1005B088A31AE
:1009A000B0228231023EB03E86008701010820005D
:1009B000C0005B35C1000130C135FF3E031DDC2C9A
:1009C0004135013E203E8600870140088100883085
:1009D000BF005B35C0000130C035FF3E031DEC2C6D
:1009E0004035203E860087013F0881000530BF006A
:1009F0003F08F1005B088A31B0228231043EB03EEC
:100A0000860087010115FE302000BF000530C000C0
:100A10004008F1005B088A31B0228231043EB03ECA
:100A20008600870120003F08810520005C0A8600BF
:100A3000870103300106031D1F2D0130202D0030DA
:100A4000BF003F08F1005C08043E860087010108F2
:100A50008231032282312000CA014A08031D342D4D
:100A60008A31212282313A2D8A31332282313A2D44
:100A7000C901C9032000490808002000DB005B0809
:100A800086008701443FDA005B0A86008701063052
:100A90000106031DB52D5B08860087018130010624
:100AA000031DB52D5B08023E86008701403FC6004E
:100AB000413FC7004708C8004808D400FF30D600AF
:100AC000FF30D70021305406031D732D5830C60067
:100AD0004608F1005A088A319022853172082000B8
:100AE000D7007108832D22305406031D842D583001
:100AF000C6004608F1005A088A31A02285317208E2
:100B00002000D7007108D600D71F882DFF300800BD
:100B10005B08063E86008701403FC600413FC70094
:100B200047085702031D962D46085602031CA12DA7
:100B30005B08063E86008701403FD200413FD3005C
:100B4000A52D5708D3005608D2005808BF005908F1
:100B5000C0005308C2005208C1000030C300C400E6
:100B6000C5018A31E8220030080020005B0A8600B7
:100B7000870109300106031DE62D5B088600870109
:100B800021300106031DE62D5B08023E8600870129
:100B9000403FC600413FC7004708C8004808C90099
:100BA0005B0886008701423FCA004908C600460824
:100BB000F8004A08C7004708F9005A088A31552248
:100BC0002000C8004808CB004B0808005B0A8600DC
:100BD000870102300106031D152E5B088600870180
:100BE000A1300106031D152E5B0886008701423FD8
:100BF000CC004C08C6004608F1005A088931F4219F
:100C000085312000C7004708CD004D30BF000030BF
:100C1000C0000130C1000030C2000030C300C40079
:100C2000C5018A31E8220030080020005B0A8600F6
:100C300087010A300106031D462E5B0886008701E6
:100C400021300106031D462E5B08023E8600870107
:100C5000403FC600413FC7004708C8004808CE00D3
:100C60005B0886008701423FCF004F08C600460858
:100C7000F1004E08C7004708F2005A088931F821F0
:100C80002000C8004808D000500808005B0A860011
:100C9000870103300106031D702E5B088600870163
:100CA000A1300106031D702E5A088931F6218531C5
:100CB0002000C6004608D500D51F602EFF30080072
:100CC0005530BF000030C0000130C1000030C2000C
:100CD0000030C300C400C5018A31E822003008009A
:100CE00020005B0A860087010B300106031D8D2E54
:100CF0005B088600870121300106031D8D2E5B08ED
:100D000086008701423FF1005A088931FA2120000C
:100D1000C6004608D10051080800FF3008003D0019
:100D200011109110920197018E1511161115901145
:100D300090119011901190019830F1000E30F20056
:100D40000030F300F4001030F5000030F6008B3175
:100D5000002386313D0018169811181598141810A4
:100D60002000C101C10A023041020318E22E4108ED
:100D7000983EF900FA010E30FA3D7908BF007A0872
:100D8000C0003F0886004008870001163F08860023
:100D90004008870081153F0886004008870001153C
:100DA0003F0886004008870081143F0886004008FD
:100DB000870001100130F9007908C10702304102B3
:100DC000031CB72E3D0096012100A701AE01BC0116
:100DD0002000C101023041020318072F0430F9003E
:100DE0000530FA007A08F10041088A31B0228631D4
:100DF000043EB03E86008701790881000130F90089
:100E000079082000C10702304102031CEE2E203079
:100E1000F1000030F2000030F300F4001030F50073
:100E20000030F6008B310023863121003A088C31E6
:100E30001A24863178082000A3007708A200083021
:100E4000F9007908A1008030F9007908A00021009C
:100E50003B088C311A24863178082000A7007708D7
:100E6000A6000830F9007908A500A401C101C10A53
:100E7000023041020318DB2F0530F9007908F10038
:100E800041088A31B0228631B03E860087010108D0
:100E90008C311A24863120004135FA000130FA35B0
:100EA000FF3E031D4F2F7A35023E203E860087010C
:100EB0007708C03F7808C13F0530F9007908F10094
:100EC00041088A31B0228631023EB03E8600870159
:100ED0000108FA0020004135FB000130FB35FF3EE0
:100EE000031D6E2F7B35013E203E860087017A0868
:100EF00081008830F9004135FA000130FA35FF3EB3
:100F0000031D7E2F7A35203E8600870179088100F7
:100F10000530F9007908F10041088A31B0228631A4
:100F2000013EB03E8600870101088C311A248631CB
:100F300020004135FA000130FA35FF3E031D9C2F99
:100F40007A35063E203E860087017708C03F780844
:100F5000C13F0530F9007908F10041088A31B0221B
:100F60008631033EB03E860087010108FA0020006A
:100F70004135FB000130FB35FF3E031DBB2F7B35A8
:100F8000053E203E860087017A0881004135F90040
:100F90000130F935FF3E031DC92F7935043E203E4F
:100FA0008600870181010130F9007908C10702300C
:100FB0004102031C3C2F8A3129220800F3007335BB
:100FC000F1000130F135FF3E031DE22F7135013E86
:100FD000203E8600870181018430F1007335F200E4
:100FE0000130F235FF3E031DF12F7235203E8600A1
:100FF0008701710881000800F101F2010800080072
:1013E2000800080008000030080001300800FF3043
:1013F2000800FF300800003008000030080021001B
:101402002E080800FF30F100FF30F2000800200033
:10141200DC005C0885313D250800FE0012001E003C
:10142200FE0B0F2A0034640080010131890B152A5A
:1014320000340830F10071082000A500A401080062
:101442002000A401A501C830F1007108A400080021
:101452002100A201A301AA01A001A1012000EA0129
:10146200EB0108000830F10071082000A50084306B
:10147200F1007108A40008000830F1007108200092
:10148200A1008030F1007108A0000800F6000530CC
:10149200F5007508F10076088A31B022013EB03EAF
:1014A20086008701010808000130F1000030F200D7
:1014B2001830F3000B30F400F501AF308A31D2223C
:1014C20000300800F6000530F5007508F1007608D6
:1014D2008A31B022043EB03E8600870101080239FB
:1014E20008002100AC01AC0A2B1D0800240A0319D4
:1014F200250A031908000130A4070030A53D0800A1
:1015020000340034003400340034E034E834083469
:1015120008340034D034D834003445349034573051
:10152200F4009030F5007108860087017408C03F0E
:101532007508C13F0930F1000030F20008000430A4
:10154200F3009030F4007108860087017308C03FF1
:101552007408C13F4130F1000030F2000800F4008D
:10156200F301741CB82A7108F2007208F307031021
:10157200F10D0310F40C7408031DB22A730808005D
:10158200F2007235F1000130F135FF3E031DC52A2C
:101592007135043E203E86008701010D010D01399F
:1015A2000800F7008A31292273082000EA00740833
:1015B200EB007708F60076082100AA007208A10065
:1015C2007108A0007508F6007608FC0008002000EB
:1015D2004308EA004408EB004508FB007B08FC00D6
:1015E2003F08B0004008B1004208B3004108B20011
:1015F2004208B5004108B4008D313D25080071084C
:10160200F7007208F8000130F5020030F63B750A67
:101612000319760A031908007708860078088700FC
:10162200730881000130F7070030F83D042B2100D8
:101632002F082B0603190800033025022130031955
:101642002402031C2B2B04302502B0300319240280
:10165200031C1714A401A5012F08F3007308AB00A3
:101662000800F501F601711C3A2B7308F50774089E
:10167200F63D0130F335F40D890B3B2B0130F23688
:10168200F10C890B402B71087204031D342B760870
:10169200F2007508F100080000308A3163228B31B4
:1016A200003A031D08002100BC1D592B01305A2BA2
:1016B2000030F9007908FA002000A4017A08031921
:1016C200682B7708F9007908A500C8306D2B7708D8
:1016D200F9007908A5008830F9007908A4000830DB
:1016E200F90079082100BC060800F5007508031D01
:1016F2008A2B8B30F3009030F4007108860087014A
:101702007308C03F7408C13F0430F1000030F2009A
:1017120008007503031D9D2B6730F3009030F40021
:101722007108860087017308C03F7408C13F1230F8
:10173200F1000030F2000800FF30F100FF30F2004B
:101742000800F8000530F5007508F10078088A31C4
:10175200B0228B31033EB03E860087010108F600BD
:101762007835F7000130F735FF3E031DB42B77358E
:10177200053E203E86008701760881008430F50010
:101782007835F6000130F635FF3E031DC42B763561
:10179200043E203E86008701750881000800210072
:1017A2003A082000DD005D08DF005F08860087013F
:1017B2000030811B01302100A9008A311A228B31AD
:1017C2002100200821040319F82B20006A086B0469
:1017D2000319F52BF1017C08DD005D08F2006B08AE
:1017E2008A006A080A008B318A3129228B31200053
:1017F2005F0886008701010E890C0339003A031D38
:101802000B2C823126228B312000DD005D08DE00A8
:10181200DE1F172C5F088A3108228B312000DD0081
:101822005D08DE00DE1F172C8A3133223D000E12C6
:1018320008002000BB003B08BD000030BE00203085
:101842003E02003003193D02031C2C2C3E08F80016
:101852003D08F70008003E08B0003008BA003D0815
:10186200B0003008BC003C088039B000B1013A0831
:10187200B200B301B235B30D30083207B4003108FB
:10188200333DB500340835040319492C01304A2C84
:101892000030B600B7013608F1003708F2005030C8
:1018A200F3000030F4008B31322320003C087F39F2
:1018B2007107B80072080318720AB9003808E03ECE
:1018C200F7001F30393DF80008002000B100210068
:1018D2002E0803190800200031088A3163228C3156
:1018E200003A031D080020003135F9000130F935B6
:1018F200FF3E031D782C7935043E203EFA007A081B
:10190200B2000530F9007908F10031088A31B022BD
:101912008C31043EB03E86008701811D922C01303D
:10192200932C0030FA007A082000B00032088600BA
:101932008701810130080319A72C7708F900320AC0
:101942008600870179088100C830AF2C7708F9003A
:10195200320A86008701790881008830F90032084E
:1019620086008701790881000830F9000530FA0005
:101972007A08F10031088A31B022043EB03E860076
:10198200870179088106080020002108F400740804
:10199200F80021002903031DE12C20006A086B04D2
:1019A2000319DE2CF101F10A7C08F4007408F2003C
:1019B2006B088A006A080A008C318A3129220800E1
:1019C20021002A08031908007808F400F50121080B
:1019D2007502031DEE2C20087402031CF52C21084D
:1019E200F7002008F600FC2C7808F400F5017408D2
:1019F200F6007508F7007608F4007408F9002A0862
:101A02008600870121003A08840085017908F400E4
:101A120012001E00F40B092D7908F400740821004D
:101A2200AA077908F400F5017408A0027508A13B21
:101A320008307802031C212D20082104031D080010
:101A42007808790203183A2D8A3133228C3120002A
:101A52006A086B040319372DF1017C08F40074083D
:101A6200F2006B088A006A080A008D318A31292245
:101A720008008A3121220800003020003302083099
:101A820003193202031C4A2D0830B8000030B90095
:101A92004E2D3308B9003208B8003808B6003608AF
:101AA200BE003E08B600B70135083702031D5B2DA4
:101AB20034083602031C622D3508BB003408BA0014
:101AC200692D3E08B600B7013608BA003708BB00D8
:101AD2003A08B6003608BE0035083302031D732DDE
:101AE200340832020318772D0130782D0030B60009
:101AF20036082100AD003B0886008701200030082F
:101B02008400310885003E08B60012001E00B60BA4
:101B1200862D20003E08B600B701360830072100A6
:101B2200A20020003708313D2100A3002000330825
:101B32003502031D9E2D32083402031CA42D3308E6
:101B4200BD003208A72D3508BD003408BC003E0890
:101B5200B600B701B609B709B60A0319B70A3C08B5
:101B620036072100A00020003D08373D2100A100DA
:101B7200BC1520003E08B600B7013608F70037084A
:101B8200F8008B314D230800210027080319CE2DC0
:101B920026083D0096002100A70120082104031910
:101BA2002B2E00302102083003192002031CDF2DE6
:101BB20008302000B2000030B300E72D21002108D8
:101BC2002000B300210020082000B2003208B0003B
:101BD2003008B40021003B0886008701210022085A
:101BE20084002308850020003408B00012001E0083
:101BF200B00BF72D20003408B000B10130082100ED
:101C0200A002200031082100A13B20003408B000CE
:101C1200B10130082100A207200031082100A33DB4
:101C220020082104031D202E083020003406031D45
:101C3200202E21002D080319202EA801A80A200019
:101C42003408B000B1013008F7003108F8008B31D8
:101C52004D2308002100280803193A2E0030F7000E
:101C6200F8008B314D238D312100A8018A312922C0
:101C7200080021002908031D080020006A086B04DF
:101C820003194E2EF101F10A7C08B0003008F2006F
:101C92006B088A006A080A008E318A3129220800FC
:101CA2002100C101EE30BF000230C000C201951315
:101CB200083024008C0086318F268E3101308A3123
:101CC20047228E312000E90069082100C3008F31CC
:101CD20001278E318A3100228E31003A0319682E93
:101CE20021002C080319A22E4208031D4203031DE2
:101CF200A12E20008C1D8A2E21003F0840040319CA
:101D0200872E0130BF020030C03BA12EC201C20AA1
:101D1200A12E023021004002EE3003193F020318C7
:101D2200972E0130BF070030C03DA12E4203031D94
:101D3200A12E02302000E90069082100C200C10181
:101D4200AC0101308A3163228E31003A031D682EC4
:101D520001308A31C1228E31003A031D682E0230D1
:101D620021004206031D682E430886008701810177
:101D7200430A86008701810104304106031DC82EF3
:101D8200C2014308023E860087018101DF2E41081D
:101D9200003E840090300318013E850000082000B8
:101DA200E90021004308023E8600870120006908FD
:101DB20081000130E90069082100C1074308033EA0
:101DC2008600870181014308043E86008701810164
:101DD2004308053E8600870181014308063E8600CE
:101DE200870181014308073E86008701810108308F
:101DF200F7000030F80001308C3166248E31682EF5
:101E02003D00101C0C2F8931F3218F3186318F2632
:101E12008F313D001010901E432F01302000E7004B
:101E22000030E8006808803AE00080306002031D5C
:101E32001C2F023067020318412F98302000E00067
:101E42000E30E10067086007E2006808613DE300C8
:101E52006208E4006308E5006408860065088700FC
:101E620001100130E7070030E83D6808803AE000E1
:101E720080306002031D3F2F02306702031C1E2FB9
:101E82003D009012901DF42F0F0C2000E000E00C9A
:101E9200600C0F39003A031D732F3D000F19732F89
:101EA2002000200C890C0F39E0006008E6000D309C
:101EB2006606031D602F8B31D0238F316F2F0930BF
:101EC2002000660603196F2F6603031D6C2F8C31E9
:101ED200C5248F316F2F8A3133228F318A313D22CF
:101EE2008F31F22F3D000F0C2000E000E00C600C5F
:101EF2000F39003A031D842F3D000F1D842F8D31B1
:101F0200C5258F31F22F3D000F0C2000E000E00CC0
:101F1200600C0F39003A0319F22F3D000F0C20001C
:101F2200E000E00C600C0F39E1000230610203189E
:101F3200F22F3D000F1DC82F05302000E000600881
:101F4200F1003D000F0C2000E100E10C610C0F39A3
:101F52008A31B0228F31043EB03E86008701811C57
:101F6200BD2F3D000F0C2000E000E00C600C0F398B
:101F72008B31A2238F31F22F3D000F0C2000E000A5
:101F8200E00C600C0F398931F1218F31F22F0530CD
:101F92002000E0006008F1003D000F0C2000E1008D
:101FA200E10C610C0F398A31B0228F31043EB03E10
:101FB20086008701011CE82F3D000F0C2000E00085
:101FC200E00C600C0F398731DE278F31F22F3D0094
:101FD2000F0C2000E000E00C600C0F398931F22177
:101FE2008F313D009011101FFB2F8A3172228F31E9
:101FF2003D0010132000121D0800121108000434C5
:102002000534063407340534013409340634A13466
:102012000134053407341934E0342934E7341534F3
:102022000034253401347534013495340834813454
:1020320002349534013475340834813401349534D2
:102042000334753401340534083419340134293425
:1020520003349134023495340134753405349134A7
:10206200013495340634753408341534003426347A
:10207200FF34003405340734193400342A34FF3471
:10208200003481340034C034093402342234003440
:1020920001340134013480343234093404340034DC
:1020A200003401340334013401340034093421345E
:1020B2001034013400340134223441340034073402
:1020C20005348134033408340034013412340334C7
:1020D2006B340034653400347934003462340034B3
:1020E2006F340034613400347234003464340034A8
:1020F2001234013411340134003400340034083411
:10210200D8340434553400340134003400340134FA
:0C21120000340134043403340934043474
:00000001FF
