:10040000000082310B2A0800823120007F08F000B2
:100410007008FF00090082310D2AFC01A030840021
:10042000003085001930FE000030FF008731F427CE
:10043000823120308400023085004030FE000030E0
:10044000FF008731F4278231A0308400023085001C
:100450004030FE000030FF008731F42782316730E2
:10046000840089308500C630860000308700003067
:10047000FF0007308931A72182312F3084008A3074
:100480008500CB308600013087000030FF0015303A
:100490008931A72120008F31382F2000D101210080
:1004A00046082000E400210047082000E500640819
:1004B000860065088700413106300106031D2D2B9B
:1004C000640886006508870080300106031D2D2B17
:1004D00064088600650887004231403FC700413FFD
:1004E000C8004808C9004908E1006408860065089A
:1004F000870042310108C7004708E2006103031D7D
:100500009D2A4330B8009030B900433084009030C9
:1005100085000008C700C8014708BA004808BB00AA
:1005200064088600650887004631403FBC00413FB3
:10053000BD008D31872582318E2D0230200061066D
:10054000031DD22A62080319A92A89318721823121
:100550008E2D20006235CB3E86008701403FD400BF
:10056000413FD5005408B8005508B9005508C800E7
:100570005408C70002304707840048080318480A97
:100580008500003FBA00013FBB0064088600650893
:1005900087004631403FBC00413FBD008D3187257B
:1005A00082318E2D033020006106031D002B5A304E
:1005B000C7004708F10062088A315C228231720864
:1005C0002000D7007108D600D71FEA2A8931872179
:1005D00082318E2D20005A08B8005B08B9005708F8
:1005E000BB005608BA0064088600650887004631DB
:1005F000403FBC00413FBD008D31872582318E2DAB
:1006000020006408F1006508F2005330C700470875
:10061000F30089315B21823172082000D900710812
:10062000D800D91F172B8931872182318E2D2000C8
:100630005308B8000030B9005908BB005808BA0088
:1006400064088600650887004631403FBC00413F92
:10065000BD008D31872582318E2D200064088600F3
:1006600065088700413105300106031D492B210033
:10067000AB01AB0A200064088600650887004231A0
:100680000108C70047082100AA0089316E21823184
:100690008E2D2000640886006508870041310930EE
:1006A0000106031D6D2B6408860065088700423132
:1006B0000108C7004708DC005C0882310322823150
:1006C00086319E26823189316E21823120005C087C
:1006D000C70047082100B8008E2D2000640886005E
:1006E00065088700413108300106031D8C2BB830A6
:1006F000B8000030B9000130BA000030BB00640817
:100700008600650887004631403FBC00413FBD0080
:100710008D31872582318E2D200064088600650882
:10072000870041310108031D232C640886006508F9
:10073000870001081F39003A031DBB2B893158215E
:10074000823172082000CB007108CA004A30B8001C
:100750000030B9000230BA000030BB0064088600E7
:10076000650887004631403FBC00413FBD008D31E8
:10077000872582318E2D2000640886006508870059
:1007800001081F39023A031D1F2C64088600650802
:100790008700443101080F39C7004708DD000330E6
:1007A0005D0203181B2C0730C7004708F1005D08E5
:1007B0008931D4218231063ECB3E8600013087004C
:1007C00001082000C8004808DE00640886006508AB
:1007D00087004431403FC700413FC800C71BF32B8F
:1007E0005E080139F52B5E080239C700C8014708C9
:1007F000CF004808D0004F0850040319012C0130E5
:10080000022C0030C7004708CC00CD014C30B800A6
:100810000030B9000230BA000030BB006408860026
:10082000650887004631403FBC00413FBD008D3127
:10083000872582318E2D8931872182318E2D893114
:10084000872182318E2D200064088600650887008C
:1008500041310B300106031D4D2C640886006508EC
:10086000870042310108C7004708F100640886008C
:100870006508870044310108893153218231200005
:10088000C8004808CE00CE1F492C8931872182310B
:100890008E2D89316E2182318E2D200064088600D4
:1008A0006508870041310A300106031D802C640869
:1008B0008600650887004431010889315121823161
:1008C0002000C7004708DF00DF1F6A2C893187211D
:1008D00082318E2D5F302000B8000030B900013029
:1008E000BA000030BB006408860065088700463106
:1008F000403FBC00413FBD008D31872582318E2DA8
:10090000200064088600650887004131010303194F
:10091000922C640886006508870041310330010687
:10092000031D8C2DD201D20A640886006508870059
:1009300001081F39023A031D812D640886006508ED
:100940008700423116000104031D812D64088600D2
:1009500065088700443101080F39C7004708E300E4
:100960006408860065088700443101088039C700A3
:100970004708E000033063020318812D64088600F5
:1009800065088700413103300106031DD52C60083E
:100990000319CF2C63088A3175228231662D20001D
:1009A00063088A318F228231662D20006008031986
:1009B000182D0730C7004708F10063088931D4219A
:1009C0008231053ECB3E86000130870001082000C1
:1009D000C8006335C9000130C935FF3E031DEC2C4A
:1009E0004935053E203E8600870148088100633571
:1009F000C7000130C735FF3E031DFA2C4735043EC2
:100A0000203E860087018101F730C7000730C8000B
:100A10004808F10063088931D4218231063ECB3E7B
:100A2000860001308700200047088105FD30552DE4
:100A30000730C7004708F10063088931D4218231AB
:100A4000043ECB3E86000130870001082000C8002C
:100A50006335C9000130C935FF3E031D2B2D4935D3
:100A6000013E203E86008701480881008830C7008B
:100A70006335C8000130C835FF3E031D3B2D4835A6
:100A8000203E86008701470881000730C7004708DD
:100A9000F10063088931D4218231063ECB3E8600C5
:100AA000013087000115FE302000C7000730C80064
:100AB0004808F10063088931D4218231063ECB3EDB
:100AC0008600013087002000470881052000640867
:100AD000860065088700413103300106031D722D31
:100AE0000130732D0030C7004708F100640886000C
:100AF000650887004431010889314E218231200088
:100B0000D2015208031D882D89316E2182318E2D2C
:100B10008931872182318E2DD101D10320005108E6
:100B200008003D00101C9C2D89314C2185318B31F2
:100B3000D32385313D001010901EDE2D01302100A1
:100B4000BC000030BD003D08803A2000EA00803043
:100B50006A02031DAE2D033021003C020318DC2D78
:100B600098302000EA000E30EB0021003C08200005
:100B70006A07EC0021003D0820006B3DED006C0889
:100B80002100B90020006D082100BA003908860054
:100B90003A08870001100130BC070030BD3D3D0818
:100BA000803A2000EA0080306A02031DDA2D03300B
:100BB00021003C02031CB02D3D009012901D922E8E
:100BC0000F0C2000EA00EA0C6A0C0F39003A031DF2
:100BD0000F2E3D000F190F2E2000200C890C0F390D
:100BE000EA006A082100BB000D303B06031DFC2D06
:100BF0008B31792385310B2E093021003B060319F7
:100C00000B2E3B03031D082E8C31922485310B2EB5
:100C1000893187218531893191218531902E3D009F
:100C20000F0C2000EA00EA0C6A0C0F39003A031D91
:100C3000202E3D000F1D202E8E3110268531902E46
:100C40003D000F0C2000EA00EA0C6A0C0F39003A54
:100C50000319902E3D000F0C2000EA00EA0C6A0CEC
:100C60000F39EB0003306B020318902E3D000F1D6F
:100C7000652E07302000EA006A08F1003D000F0CE5
:100C80002000EB00EB0C6B0C0F398931D42185313E
:100C9000063ECB3E860001308700811C5A2E3D0067
:100CA0000F0C2000EA00EA0C6A0C0F398B314A2342
:100CB0008531902E3D000F0C2000EA00EA0C6A0CF2
:100CC0000F39893149218531902E07302000EA0003
:100CD0006A08F1003D000F0C2000EB00EB0C6B0CE0
:100CE0000F398931D4218531063ECB3E8600013053
:100CF0008700011C862E3D000F0C2000EA00EA0C44
:100D00006A0C0F398A31E1228531902E3D000F0C9B
:100D10002000EA00EA0C6A0C0F3989314A2185313A
:100D20003D009011101F992E89314B2185313D00D6
:100D300010132000121D0800121108003D000E17AC
:100D40002100CA012000C601033046020318C22E4A
:100D50000430F9000730FA007A08F10046088931BA
:100D6000D4218631063ECB3E8600013087007908CB
:100D700081000130F90079082000C60703304602DF
:100D8000031CA82E2030F1000030F2000030F300E8
:100D9000F4001830F5000030F6008A314422863124
:100DA00021004608F7004708F8008731A927863157
:100DB00078082000A3007708A2000830F90079081D
:100DC000A1008030F9007908A00021004808F70050
:100DD0004908F8008731A927863178082000A70044
:100DE0007708A6000830F9007908A500A401C6011B
:100DF000C60A033046020318A62F0730F900790807
:100E0000F10046088931D4218631CB3E860001307D
:100E10008700403FF700413FF8008731A92786311E
:100E200020004635FB000130FB35FF3E031D142F2B
:100E30007B35023E203E860087017708C03F780858
:100E4000C13F0730F9007908F10046088931D42103
:100E50008631043ECB3E8600013087000108FA004F
:100E600020004635FB000130FB35FF3E031D342FCB
:100E70007B35013E203E860087017A08810088305C
:100E8000F9004635FA000130FA35FF3E031D442FC4
:100E90007A35203E86008701790881000730F90005
:100EA0007908F10046088931D4218631023ECB3ED3
:100EB000860001308700403FF700413FF80087314E
:100EC000A927863120004635FB000130FB35FF3E67
:100ED000031D662F7B35063E203E8600870177087E
:100EE000C03F7808C13F0730F9007908F100460893
:100EF0008931D4218631053ECB3E86000130870002
:100F00000108FA0020004635FB000130FB35FF3EAA
:100F1000031D862F7B35053E203E860087017A081B
:100F200081004635F9000130F935FF3E031D942F4D
:100F30007935043E203E8600870181010130F900A9
:100F40007908C60703304602031CFD2E3D000E1330
:100F5000080078082000C5007708C400203045024A
:100F6000003003194402031CBA2F4508F800440856
:100F7000F70008004508B8003808C2004408B80067
:100F80003808C30043088039B800B9014208BA00E4
:100F9000BB01BA35BB0D38083A07BC0039083B3DE8
:100FA000BD003C083D040319D72F0130D82F003075
:100FB000BE00BF013E08F1003F08F2005030F300D0
:100FC0000030F4008A31A922200043087F397107DC
:100FD000C00072080318720AC1004008E03EF70022
:100FE0001F30413DF80008006400800101310130EC
:100FF000FE020030FF3B7F087E0403190034F52F0A
:10129200080008000800080008000800FF300800E5
:1012A2000030080000300800210038080800F10171
:1012B200F2010800FF30F100FF30F20008000830B0
:1012C200F10071082000A500A40108008034203438
:1012D200883420340034003490342000A401A50165
:1012E200C830F1007108A400080020005708CD00A2
:1012F2005808CE008E319E2608002100A601A701C3
:10130200AE01A201A301A401A50108000830F10069
:1013120071082000A5008430F1007108A4000800C3
:101322000830F10071082000A1008030F10071083E
:10133200A0000800720803190800B130F400740814
:10134200F1002100300889314D210800FE00120011
:101352001E000130FE020030FF3B7F087E040319AD
:101362000034A829F6000730F5007508F100760868
:101372008931D421063ECB3E860001308700010828
:101382000239080021008E160E12243023009E001E
:1013920090309D0000309C0067309B009C0108301B
:1013A2009F0019080800F400F301741CDC2971087D
:1013B200F2007208F3070310F10D0310F40C740825
:1013C200031DD62973080800F2007235F1000130BE
:1013D200F135FF3E031DE9297135043E203E8600AA
:1013E2008701010D010D01390800F8000730F600F0
:1013F2007608F10078088931D421023ECB3E86007E
:1014020001308700403FF500413FF6000800F2003E
:101412007235F1000130F135FF3E031D0C2A7135A2
:10142200203E860087010310811F03140030093D0E
:101432000800F70089317E2173082100A400740896
:10144200A5007708F6007608AE007208A3007108BE
:10145200A2007508F6007608FC000800003400348B
:101462000034003400340034003490342034913499
:10147200203401340A3400349B342034DB342034E9
:101482004034403400347108F7007208F80001302B
:10149200F5020030F63B750A0319760A03190800B3
:1014A2007708860078088700730881000130F70703
:1014B2000030F83D482AF5007508031D702A5530A2
:1014C200F3009030F4007108860087017308C03F72
:1014D2007408C13F0430F1000030F2000800FF3010
:1014E200F100FF30F2000800FA007A080319080040
:1014F20003307A02031808000730F9007908F10076
:101502007A088931D4218A31063ECB3E86000130E9
:10151200870081147A088B314A230800F600760886
:101522000319080003307602031808000730F5009B
:101532007508F10076088931D4218A31063ECB3E06
:10154200860001308700011476088A31E122080002
:10155200F501F601711CB12A7308F5077408F63D0E
:101562000130F335F40D890BB22A0130F236F10C59
:10157200890BB72A71087204031DAB2A7608F200A0
:101582007508F10008002000CC0049082100A400E1
:1015920020004A082100A50020004B08FB007B0820
:1015A200FC004C08B8000030B9004808BB004708EE
:1015B200BA004808BD004708BC008D3187250800E5
:1015C200F3007335F1000130F135FF3E031DE52ACA
:1015D2007135013E203E8600870181018430F10091
:1015E2007335F2000130F235FF3E031DF42A7235E5
:1015F200203E86008701710881000800F70007304D
:10160200F6007608F10077088931D4218A31CB3E81
:10161200860001308700750884008501403F803FC5
:10162200413F813F7735F6000130F635FF3E031D1D
:10163200162B7635013E203E860087010108080000
:1016420000308931B3218B31003A031D080021009B
:10165200CA1D2D2B01302E2B0030F9007908FA001B
:101662002000A4017A0803193C2B7708F9007908B5
:10167200A500C830412B7708F9007908A500883009
:10168200F9007908A4000830F90079082100CA0697
:101692000800F8000730F5007508F1007808893174
:1016A200D4218B31053ECB3E8600013087000108F4
:1016B200F6007835F7000130F735FF3E031D5D2B4C
:1016C2007735053E203E860087017608810084300A
:1016D200F5007835F6000130F635FF3E031D6D2B1F
:1016E2007635043E203E8600870175088100080099
:1016F200210046082000E800210047082000E900F8
:1017020068088600690887000030811B01302100CB
:10171200AD00893160218B312000A41F952B083048
:10172200E6006608A500A40121002208230403198B
:10173200AD2B240825040319AA2BF2017C082000F2
:10174200E6006608F300210025088A0024080A0042
:101752008B3189317E218B3120006808860069082F
:101762008700010E890C0339003A031DC12B823117
:101772004D228B312000E6006608E700E71FD02BE0
:101782006808D7006908D800893176218B3120009A
:10179200E6006608E700E71FD02B893187213D006C
:1017A2000E1208003D0011109110920197018E1542
:1017B20011161115901190119011901190019830FD
:1017C200F1000E30F2000030F300F4001030F500AA
:1017D2000030F6008A3144228B313D0018169811F0
:1017E2001815981418102000C901C90A03304902BB
:1017F2000318262C4908983EC700C8010E30C83D80
:101802004708CA004808CB004A0886004B088700F0
:1018120001164A0886004B08870081154A0886008F
:101822004B08870001154A0886004B08870081147F
:101832004A0886004B08870001100130C70047089C
:10184200C90703304902031CFB2B3D00960121000E
:10185200AB01B80186319E268B3189317E21080089
:101862002000B900210038080319080020003908B7
:101872008931B3218C31003A031D0800200039352B
:10188200F9000130F935FF3E031D432C7935043E42
:10189200203EFA007A08BA000730F9007908F10010
:1018A20039088931D4218C31063ECB3E8600013085
:1018B2008700811D5E2C01305F2C0030FA007A080F
:1018C2002000B8003A088600870181013808031910
:1018D200732C7708F9003A0A86008701790881009B
:1018E200C8307B2C7708F9003A0A8600870179080C
:1018F20081008830F9003A08860087017908810062
:101902000830F9000730FA007A08F1003908893105
:10191200D421063ECB3E860001308700790881063D
:10192200080020002108F5007508F90021002D03A8
:10193200031DAD2C240825040319AA2CF201F20A76
:101942007C08F5007508F30025088A0024080A00BF
:101952008C3189317E21080021002E0803190800EC
:101962007908F500F60123087602031DBA2C220835
:101972007502031CC12C2308F8002208F700C82CAA
:101982007908F500F6017508F7007608F80077087F
:10199200F5007508FA002E08860087012100460826
:1019A2008400470885007A08F50012001E00F50B36
:1019B200D62C7A08F50075082100AE077A08F500E2
:1019C200F6017508A2027608A33B08307902031CCF
:1019D200EE2C22082304031D080079087A0203185A
:1019E200072D893187218C31210024082504031910
:1019F200042DF2017C08F5007508F30025088A0021
:101A020024080A008D3189317E21080089316E2136
:101A12000800F9000730F5007508F10079088931EE
:101A2200D4218D31063ECB3E860001308700011D58
:101A32001C2D01301D2D0030F6007608F8007808C4
:101A420003194A2D0730F5007508F100790889312C
:101A5200D4218D31043ECB3E86000130870001083F
:101A6200F6007935F7000130F735FF3E031D352DBD
:101A72007735013E203E8600870176088100C83016
:101A8200F5007935F6000130F635FF3E031D452D90
:101A9200702D0730F5007508F10079088931D421DD
:101AA2008D31043ECB3E8600013087000108F600EE
:101AB2007935F7000130F735FF3E031D5C2D773590
:101AC200013E203E86008701760881008830F500BD
:101AD2007935F6000130F635FF3E031D6C2D763563
:101AE200203E86008701750881000430F50007302A
:101AF200F6007608F10079088931D421063ECB3E02
:101B02008600013087007508810608000030200039
:101B12003B02083003193A02031C942D0830C0001E
:101B22000030C100982D3B08C1003A08C0004008AF
:101B3200BE003E08C6004608BE00BF013D083F0287
:101B4200031DA52D3C083E02031CAC2D3D08C3001D
:101B52003C08C200B32D4608BE00BF013E08C200C9
:101B62003F08C3004208BE003E08C6003D083B02D3
:101B7200031DBD2D3C083A020318C12D0130C22DB0
:101B82000030BE003E082100AF0048088600490828
:101B92008700200038088400390885004608BE0006
:101BA20012001E00BE0BD12D20004608BE00BF0150
:101BB2003E0838072100A60020003F08393D2100D9
:101BC200A70020003B083D02031DE92D3A083C0214
:101BD200031CEF2D3B08C5003A08F22D3D08C50055
:101BE2003C08C4004608BE00BF01BE09BF09BE0AC8
:101BF2000319BF0A44083E072100A200200045083D
:101C02003F3D2100A300CA1520004608BE00BF01C7
:101C12003E08F7003F08F8008B312123080021001D
:101C22002B080319192E2A083D0096002100AB014A
:101C3200220823040319772E0030230208300319E7
:101C42002202031C2A2E08302000BA000030BB00FA
:101C5200322E210023082000BB0021002208200090
:101C6200BA003A08B8003808BC00210048088600CB
:101C720049088700210026088400270885002000E3
:101C82003C08B80012001E00B80B432E20003C088E
:101C9200B800B90138082100A20220003908210049
:101CA200A33B20003C08B800B90138082100A60770
:101CB200200039082100A73D22082304031D6C2EB1
:101CC200083020003C06031D6C2E21002F0803194A
:101CD2006C2EAC01AC0A20003C08B800B9013808EF
:101CE200F7003908F8008B312123080021002C0865
:101CF2000319862E0030F700F8008B3121238E3134
:101D02002100AC0189317E21080021002D08031D2C
:101D120008002408250403199B2EF201F20A7C080C
:101D22002000B8003808F300210025088A002408A2
:101D32000A008E3189317E21080020004D0886007C
:101D42004E08870044310108CF004F08D6004D08E5
:101D520086004E088700413120300106031DEA2E1D
:101D62004D0886004E08870021300106031DEA2E29
:101D72005608CF004F082100B00020004D08860011
:101D82004E0887004631403FCF00413FD00000302F
:101D92005002073003194F02031CD32E0730D20022
:101DA2000030DB2E4D0886004E0887004631403F4A
:101DB200D200413FD3005308F2005208F1009B3099
:101DC200F3000930F400F501B1308A311A220030F3
:101DD200080020004D0886004E088700413121305E
:101DE2000106031D362F4D0886004E088700A130DC
:101DF2000106031D362FB130CF004F08F1005608FF
:101E020089314F218E312000D0005008D100D11FDE
:101E12000C2FFF3008004D0886004E08870046311F
:101E2200403FCF00413FD00000305002073003193D
:101E32004F02031C202F0730D4000030282F4D08FA
:101E420086004E0887004631403FD400413FD5000E
:101E52005508C8005408C7000030C900CA00CB01A9
:101E6200B1308A31C42200300800FF30080021005E
:101E7200C5018931C3218F312100A901A001A1012E
:101E82008B31D3238F31853191258F318931552182
:101E92008F31003A0319442F2000911E6A2F3F30E0
:101EA2002100290203186A2F23009D1C592F1D129D
:101EB20019082100BE002908A03E860002308700D2
:101EC2003E08810023001D1601302100BE003E089D
:101ED200A9072100450803198A2F23009E1C8A2F77
:101EE20021002808203E86000230870001082300D6
:101EF2009A0001302100BE003E08A8072808BE0053
:101F0200BF0121083F06031D882F20083E06031942
:101F1200C50102308931B3218F31003A031D442FAC
:101F220002308931E5218F31003A031D442F21000F
:101F320029080319C22F02308931F6218F31750821
:101F42002100C1007608C2004108860042088700CD
:101F5200A03084000230850021002908BE00120052
:101F62001E00BE0BB02F21002908BE00BF013E0893
:101F7200F7003F08F80002308C3131248F31210004
:101F8200A9014508031D442F02308A3108228F31EE
:101F9200003A0319442FC3302100BE003E08F50069
:101FA20002308A31FF228F312100BF00C0013F0879
:101FB200A0004008A100200821040319FB2F2030B3
:101FC200860002308700210043088400440885000F
:101FD2002108BF002008BE0012001E000130BE0210
:101FE2000030BF3B3F083E04031DED2F2100C50119
:101FF200C50AA80102308D310A258F31442F0934D8
:102002000234433400340234013400348034323434
:10201200093404340034003401340234023400340C
:1020220000340534243400341034013404342434AC
:1020320002340034053424340634003401340534C7
:102042002434013400340134073405348134033438
:102052000A340034013409340434013400340234C3
:102062000A340034003400340734053402340234B4
:1020720040340034003407340534823402344034AE
:102082000034003412340134003402340234003497
:1020920000340834D83404340A34003400340134AF
:1020A2000034003400340134043403340934043479
:00000001FF
