:10040000000082310B2A0800823120007F08F000B2
:100410007008FF00090082310D2AFC01A030840021
:100420000030850011308931F9218231413084005A
:100430008A308500B1308600003087000F30893166
:10044000F321200087318F2F2000C90121003B08B4
:100450002000BF003F08DC005C0A860087010630F0
:100460000106031DF32A5C0886008701803001061F
:10047000031DF32A5C08023E86008701403FBF004F
:10048000413FC0004008C1004108D9005C08860017
:100490008701423FDA005903031D692A6430B00026
:1004A0009030B10064308400903085000008BF00B7
:1004B000C0013F08B2004008B3005C08063E860059
:1004C0008701403FB400413FB5008D311E25823188
:1004D000382D023020005906031D9D2A5A080319A1
:1004E000752A8A3110228231382D20005A35BE3EBD
:1004F00086008701403FCC00413FCD004C08B00052
:100500004D08B1004D08C0004C08BF0002303F0745
:10051000840040080318400A8500003FB200013FF4
:10052000B3005C08063E86008701403FB400413FAF
:10053000B5008D311E258231382D0330200059063B
:10054000031DCA2A5730BF003F08F1005A088B31FB
:100550007123823172082000CF007108CE00CF1FB6
:10056000B52A8A3110228231382D20005708B00078
:100570005808B1004F08B3004E08B2005C08063EB0
:1005800086008701403FB400413FB5008D311E25F4
:100590008231382D4B302000BF003F08F1005C084D
:1005A0008931E221823172082000D1007108D00027
:1005B000D11FDE2A8A3110228231382D20004B08CB
:1005C000B0000030B1005108B3005008B2005C0820
:1005D000063E86008701403FB400413FB5008D31A3
:1005E0001E258231382D20005C0A860087010530E7
:1005F0000106031D092B2100A701A70A20005C08A2
:1006000086008701423F2100A6008931FF21823107
:10061000382D20005C0A8600870109300106031D81
:10062000242B5C0886008701423FD20052088231A9
:10063000032282318931FF21823120005208BF001C
:100640003F082100B000382D20005C0A8600870199
:1006500008300106031D402BB030B0000030B1005F
:100660000130B2000030B3005C08063E860087010E
:10067000403FB400413FB5008D311E258231382DF9
:1006800020005C0A860087010108031DCE2B5C0850
:100690008600870101081F39003A031D6B2B893141
:1006A000DF21823172082000C3007108C20042308D
:1006B000B0000030B1000230B2000030B3005C087E
:1006C000063E86008701403FB400413FB5008D31B2
:1006D0001E258231382D20005C0886008701010824
:1006E0001F39023A031DCA2B5C08043E86008701AD
:1006F00001080F39BF003F08D3000230530203182E
:10070000C62B0530BF003F08F10053088A31702224
:100710008231043EB13E8600870101082000C000FE
:100720004008D4005C08043E86008701403FBF00BB
:10073000413FC000BF1B9F2B54080139A12B540817
:100740000239BF00C0013F08C7004008C800470881
:1007500048040319AD2B0130AE2B0030BF003F0819
:10076000C400C5014430B0000030B1000230B20016
:100770000030B3005C08063E86008701403FB400AD
:10078000413FB5008D311E258231382D8A3110222E
:100790008231382D8A3110228231382D20005C0AB6
:1007A000860087010B300106031DF12B5C088600D3
:1007B0008701423FF1005C08043E86008701010882
:1007C0008931DA2182312000BF003F08C600C61FF0
:1007D000ED2B8A3110228231382D8931FF2182316F
:1007E000382D20005C0A860087010A300106031DAF
:1007F000202C5C08043E8600870101088931D8213D
:1008000082312000BF003F08D500D51F0B2C8A3154
:1008100010228231382D55302000B0000030B10058
:100820000130B2000030B3005C08063E860087014C
:10083000403FB400413FB5008D311E258231382D37
:1008400020005C0A86008701010303192E2C5C0A34
:100850008600870103300106031D362DCA01CA0A2E
:100860005C088600870101081F39023A031D2B2D01
:100870005C08023E8600870116000104031D2B2D33
:100880005C08043E8600870101080F39BF003F085D
:10089000DB005C08043E8600870101088039BF0048
:1008A0003F08D60002305B0203182B2D5C0A86003D
:1008B000870103300106031D872C56080319732C8A
:1008C0000530BF003F08F1005B088A317022823199
:1008D000043EB13E86008701811420005B088B3105
:1008E00043238231132D05302000BF003F08F10063
:1008F0005B088A3170228231043EB13E8600870156
:10090000011420005B088A31FC228231132D200063
:1009100056080319C82C0530BF003F08F1005B08DA
:100920008A3170228231033EB13E86008701010880
:100930002000C0005B35C1000130C135FF3E031D02
:100940009D2C4135053E203E8600870140088100F0
:100950005B35BF000130BF35FF3E031DAB2C3F357B
:10096000043E203E860087018101F730BF0005303C
:10097000C0004008F1005B088A3170228231043ED9
:10098000B13E8600870120003F088105FD30032D20
:100990000530BF003F08F1005B088A3170228231C8
:1009A000023EB13E8600870101082000C0005B3591
:1009B000C1000130C135FF3E031DDA2C4135013E37
:1009C000203E86008701400881008830BF005B35EB
:1009D000C0000130C035FF3E031DEA2C4035203EEB
:1009E000860087013F0881000530BF003F08F10005
:1009F0005B088A3170228231043EB13E8600870155
:100A00000115FE302000BF000530C0004008F10095
:100A10005B088A3170228231043EB13E8600870134
:100A200020003F08810520005C0A86008701033012
:100A30000106031D1D2D01301E2D0030BF003F0893
:100A4000F1005C08043E8600870101088931CD2150
:100A500082312000CA014A08031D322D8931FF214D
:100A60008231382D8A3110228231382DC901C903D3
:100A70002000490808002000E70067088600870179
:100A8000443FE600670A8600870106300106031D21
:100A9000B32D67088600870181300106031DB32D41
:100AA0006708023E86008701403FC600413FC700FD
:100AB0004708C8004808DC00FF30E400FF30E500CC
:100AC00021305C06031D712D6230C6004608F1001E
:100AD00066088A315022853172082000E5007108CD
:100AE000812D22305C06031D822D6230C60046082F
:100AF000F10066088A316022853172082000E50025
:100B00007108E400E51F862DFF3008006708063EE7
:100B100086008701403FC600413FC7004708650285
:100B2000031D942D46086402031C9F2D6708063E92
:100B300086008701403FD600413FD700A32D6508BE
:100B4000D7006408D6006208BF006308C0005708D9
:100B5000C2005608C1000030C300C400C5018A317C
:100B6000E02200300800FF302000E000FF30E1000C
:100B7000670A860087010103031D282E6708860087
:100B80008701A1300106031D282E6708023E86005A
:100B90008701403FC600413FC7004708C8004808DA
:100BA000CB00670886008701423FCC004B08C60097
:100BB0004608F1004C08C7004708F2005E30C80044
:100BC0004808F3005A30C9004908F4005F30CA00F1
:100BD0004A08F50066088A31AA2285317208200089
:100BE000E1007108E000E11FF72DFF300800670801
:100BF000063E86008701403FC600413FC7004708C8
:100C00006102031D052E46086002031C102E6708B2
:100C1000063E86008701403FD800413FD900142E90
:100C20006108D9006008D8005E08BF000030C0002D
:100C30005908C2005808C1005A08C3005B08C40024
:100C40005F08C6004608C5008A31E022003008006F
:100C50002000670A8600870109300106031D592E0E
:100C600067088600870121300106031D592E670899
:100C7000023E86008701403FC600413FC70047084B
:100C8000C8004808CD00670886008701423FCE00B3
:100C90004D08C6004608F1004E08C7004708F2009C
:100CA00066088931D6212000C8004808CF004F08C7
:100CB0000800670A8600870102300106031D882E9E
:100CC000670886008701A1300106031D882E67088A
:100CD00086008701423FD0005008C6004608F10058
:100CE00066088931CE2185312000C7004708D10030
:100CF0005130BF000030C0000130C1000030C200E0
:100D00000030C300C400C5018A31E0220030080071
:100D10002000670A860087010A300106031DB92EEC
:100D200067088600870121300106031DB92E670878
:100D3000023E86008701403FC600413FC70047088A
:100D4000C8004808D200670886008701423FD300E8
:100D50005308C6004608F1005208C7004708F200D1
:100D600066088931D2212000C8004808D400540800
:100D70000800670A8600870103300106031DE32E81
:100D8000670886008701A1300106031DE32E66086F
:100D90008931D02185312000C6004608DD00DD1FE5
:100DA000D32EFF3008005D30BF000030C00001309E
:100DB000C1000030C2000030C300C400C5018A3148
:100DC000E022003008002000670A860087010B300F
:100DD0000106031D002F67088600870121300106E8
:100DE000031D002F670886008701423FF100660857
:100DF0008931D4212000C6004608D50055080800D6
:100E0000FF3008002100270803190B2F26083D009A
:100E100096002100A701200821040319682F003043
:100E20002102083003192002031C1C2F0830200067
:100E3000B2000030B300242F210021082000B300AD
:100E4000210020082000B2003208B0003008B400B1
:100E500021003C0886008701210024088400250821
:100E6000850020003408B00012001E00B00B342FA3
:100E700020003408B000B10130082100A002200099
:100E800031082100A13B20003408B000B101300836
:100E90002100A407200031082100A53D20082104DD
:100EA000031D5D2F083020003406031D5D2F210037
:100EB0002B0803195D2FA801A80A20003408B000F0
:100EC000B1013008F7003108F8008B311A2308000F
:100ED000210028080319772F0030F700F8008B3124
:100EE0001A2387312100A8018A3107220800210036
:100EF0002908031D08002208230403198C2FF1017F
:100F0000F10A7C082000B0003008F200210023081C
:100F10008A0022080A0087318A310722080021004E
:100F2000C6018E31B126873101308A3124228731C2
:100F30002100C5004508C7008D31A62587318931BC
:100F4000DC218731003A03199C2F01308A3132228B
:100F50008731003A031D9C2F01308A31812287316D
:100F6000003A031D9C2F0E302100C5004508C60520
:100F7000470886008701810140302C02031CE72FBF
:100F8000AC014608003E840090300318013E850005
:100F90000008C500470A8600870145088100013026
:100FA000C5004508C6074608003E84009030031877
:100FB000013E85000008C5004708023E8600870103
:100FC000450881000130C5004508C607F02F470AD3
:100FD0008600870181014708023E86008701810162
:100FE0000330F7000030F80001308C31482487319D
:100FF0009C2F0830F10071082000A500A401080012
:1013920008000800080008000800003008000130BA
:1013A2000800FF300800FF300800FF30080000305E
:1013B200080000300800210030080800F101F201A5
:1013C2000800FF30F100FF30F20008000130F100A8
:1013D20071082100AC0708002000E8006808853188
:1013E2003B250800FE0012001E00FE0BF42900340B
:1013F200640080010131890BFA2900342000A40124
:10140200A501C830F1007108A40008002100A40160
:10141200A501AA01A001A101A201A30108000830AF
:10142200F10071082000A5008430F1007108A400C9
:1014320008000830F10071082000A1008030F1009E
:101442007108A0000800F6000530F5007508F100EB
:1014520076088A317022013EB13E8600870101087A
:101462000800F6000530F5007508F10076088A31AB
:101472007022043EB13E860087010108023908004D
:1014820000340034003400340034E034E8340834EA
:1014920008340034D034D8340034423490345430D8
:1014A200F4009030F5007108860087017408C03F8F
:1014B2007508C13F0930F1000030F2000800103019
:1014C200F3009030F4007108860087017308C03F72
:1014D2007408C13F3230F1000030F2000800F4001D
:1014E200F301741C782A7108F2007208F3070310E2
:1014F200F10D0310F40C7408031D722A730808001E
:10150200F2007235F1000130F135FF3E031D852AEC
:101512007135043E203E86008701010D010D01391F
:1015220008007108F7007208F8000130F502003077
:10153200F63B750A0319760A031908007708860034
:1015420078088700730881000130F7070030F83D02
:10155200962AAD30F600730886008701760881006E
:10156200CC30F6000930F70074088600870176084F
:10157200C03F7708C13F75088600870181010330AB
:10158200F1000030F2000800F501F601711CCD2ACD
:101592007308F5077408F63D0130F335F40D890B35
:1015A200CE2A0130F236F10C890BD32A710872046B
:1015B200031DC72A7608F2007508F1000800200012
:1015C20043082100A200200044082100A3002000BB
:1015D2004508FB007B08FC003F08B0004008B10052
:1015E2004208B3004108B2004208B5004108B40005
:1015F2008D311E250800F3007335F1000130F135FD
:10160200FF3E031D002B7135013E203E86008701FF
:1016120081018430F1007335F2000130F235FF3E72
:10162200031D0F2B7235203E860087017108810051
:10163200080000308A3132228B31003A031D080043
:101642002100BD1D262B0130272B0030F90079081F
:10165200FA002000A4017A080319352B7708F90053
:101662007908A500C8303A2B7708F9007908A50057
:101672008830F9007908A4000830F90079082100BF
:10168200BD060800F8000530F5007508F10078087D
:101692008A3170228B31033EB13E860087010108F8
:1016A200F6007835F7000130F735FF3E031D552B64
:1016B2007735053E203E860087017608810084301A
:1016C200F5007835F6000130F635FF3E031D652B37
:1016D2007635043E203E86008701750881000800A9
:1016E200F5007508031D852B8C30F3009030F40053
:1016F2007108860087017308C03F7408C13F043037
:10170200F1000030F20008007503031D982B8230AF
:10171200F3009030F4007108860087017308C03F1F
:101722007408C13F0A30F1000030F20008000230B4
:101732007506031DAC2B7630F3009030F40071086F
:10174200860087017308C03F7408C13F0C30F10066
:101752000030F2000800FF30F100FF30F200080014
:1017620021003B082000E9006908EB006B088600B5
:1017720087010030811B01302100A9008731F92740
:101782008B312100200821040319DA2B22082304BB
:101792000319D72BF1017C082000E9006908F20047
:1017A200210023088A0022080A008B318A3107228D
:1017B2008B3120006B0886008701010E890C0339EA
:1017C200003A031DED2B823124228B312000E900E7
:1017D2006908EA00EA1FF92B6B088931ED218B3188
:1017E2002000E9006908EA00EA1FF92B8A31102279
:1017F2003D000E1208002000BC003C08BD00003075
:10180200BE0020303E02003003193D02031C0E2CA4
:101812003E08F8003D08F70008003E08B000300816
:10182200BA003D08B0003008BB003B088039B00068
:10183200B1013A08B200B301B235B30D3008320734
:10184200B4003108333DB5003408350403192B2C9C
:1018520001302C2C0030B600B7013608F1003708F1
:10186200F2005030F3000030F4008A31C52220002B
:101872003B087F397107B80072080318720AB90071
:101882003808E03EF7001F30393DF800080020001C
:10189200B1002100300803190800200031088A3104
:1018A20032228C31003A031D080020003135F90044
:1018B2000130F935FF3E031D5A2C7935043E203E96
:1018C200FA007A08B2000530F9007908F10031080F
:1018D2008A3170228C31043EB13E86008701811D1F
:1018E200742C0130752C0030FA007A082000B00008
:1018F200320886008701810130080319892C770894
:10190200F900320A8600870179088100C830912CDB
:101912007708F900320A8600870179088100883049
:10192200F900320886008701790881000830F90041
:101932000530FA007A08F10031088A317022043E3B
:10194200B13E86008701790881060800200021083F
:10195200F3007308F70021002903031DC22C22089B
:1019620023040319BF2CF101F10A7C08F300730868
:10197200F20023088A0022080A008C318A310722E9
:10198200080021002A08031908007708F300F4016F
:1019920021087402031DCF2C20087302031CD62CCD
:1019A2002108F6002008F500DD2C7708F300F40189
:1019B2007308F5007408F6007508F3007308F80060
:1019C2002A088600870121003B08840085017808E7
:1019D200F30012001E00F30BEA2C7808F3007308E0
:1019E2002100AA077808F300F4017308A002740822
:1019F200A13B08307702031C022D20082104031D9D
:101A020008007708780203181B2D8A3110228C31C6
:101A12002100220823040319182DF1017C08F30088
:101A22007308F20023088A0022080A008D318A31E5
:101A3200072208008931FF2108000030200033020C
:101A4200083003193202031C2B2D0830B800003075
:101A5200B9002F2D3308B9003208B8003808B60093
:101A62003608BE003E08B600B70135083702031D2E
:101A72003C2D34083602031C432D3508BB003408C4
:101A8200BA004A2D3E08B600B7013608BA00370838
:101A9200BB003A08B6003608BE0035083302031D03
:101AA200542D340832020318582D0130592D0030BC
:101AB200B60036082100AB003C08860087012000F2
:101AC20030088400310885003E08B60012001E006E
:101AD200B60B672D20003E08B600B7013608300766
:101AE2002100A40020003708313D2100A50020007C
:101AF20033083502031D7F2D32083402031C852D65
:101B02003308BD003208882D3508BD003408BC00FA
:101B12003E08B600B701B609B709B60A0319B70AF3
:101B22003C0836072100A00020003D08373D210077
:101B3200A100BD1520003E08B600B7013608F70027
:101B42003708F8008B311A2308003D00101CB12D14
:101B52008931CB218D318E31B1268D313D0010106E
:101B6200901EF32D01302100C3000030C400440850
:101B7200803A2000EC0080306C02031DC32D02303D
:101B8200210043020318F12D98302000EC000E30A2
:101B9200ED002100430820006C07EE0021004408FC
:101BA20020006D3DEF006E082100C00020006F088C
:101BB2002100C10040088600410887000110013061
:101BC200C3070030C43D4408803A2000EC00803056
:101BD2006C02031DEF2D023021004302031CC52DB0
:101BE2003D009012901DA52E0F0C2000EC00EC0C75
:101BF2006C0C0F39003A031D242E3D000F19242EC0
:101C02002000200C890C0F39EC006C082100C20066
:101C12000D304206031D112E8B31B1238D31202E42
:101C22000930210042060319202E4203031D1D2EF6
:101C32008C31A7248D31202E8A3110228D318A31A8
:101C42001A228D31A32E3D000F0C2000EC00EC0C6B
:101C52006C0C0F39003A031D352E3D000F1D352E39
:101C6200873102278D31A32E3D000F0C2000EC009E
:101C7200EC0C6C0C0F39003A0319A32E3D000F0C2B
:101C82002000EC00EC0C6C0C0F39ED0002306D0200
:101C92000318A32E3D000F1D792E05302000EC0005
:101CA2006C08F1003D000F0C2000ED00ED0C6D0CF6
:101CB2000F398A3170228D31043EB13E8600870190
:101CC200811C6E2E3D000F0C2000EC00EC0C6C0C05
:101CD2000F398B3143238D31A32E3D000F0C200091
:101CE200EC00EC0C6C0C0F398931C9218D31A32E1B
:101CF20005302000EC006C08F1003D000F0C2000C4
:101D0200ED00ED0C6D0C0F398A3170228D31043EDD
:101D1200B13E86008701011C992E3D000F0C200068
:101D2200EC00EC0C6C0C0F398A31FC228D31A32EA5
:101D32003D000F0C2000EC00EC0C6C0C0F398931CB
:101D4200CA218D313D009011101FAC2E8931E7213F
:101D52008D313D0010132000121D080012110800E1
:101D62003D0011109110920197018E151116111557
:101D7200901190119011901190019830F1000E3055
:101D8200F2000030F300F4001030F5000030F600ED
:101D92008A3192228E313D00181698111815981426
:101DA20018102000C101C10A023041020318042F99
:101DB2004108983EF900FA010E30FA3D7908BF0059
:101DC2007A08C0003F0886004008870001163F08D5
:101DD20086004008870081153F088600400887007A
:101DE20001153F0886004008870081143F088600DD
:101DF2004008870001100130F9007908C10702305C
:101E02004102031CD92E3D0096012100A701B00119
:101E1200BD012000C101023041020318292F043004
:101E2200F9000530FA007A08F10041088A3170227F
:101E32008E31043EB13E860087017908810001306F
:101E4200F90079082000C10702304102031C102F5B
:101E52002030F1000030F2000030F300F4001030C6
:101E6200F5000030F6008A3192228E3121003B08C3
:101E72008B31FC238E3178082000A3007708A20062
:101E82000830F9007908A1008030F9007908A00033
:101E920021003C088B31FC238E3178082000A700FA
:101EA2007708A6000830F9007908A500A401C1014D
:101EB200C10A023041020318FD2F0530F9007908EA
:101EC200F10041088A3170228E31B13E86008701CD
:101ED20001088B31FC238E3120004135FA0001309C
:101EE200FA35FF3E031D712F7A35023E203E8600F1
:101EF20087017708C03F7808C13F0530F9007908AB
:101F0200F10041088A3170228E31023EB13E8600D4
:101F120087010108FA0020004135FB000130FB3542
:101F2200FF3E031D902F7B35013E203E8600870138
:101F32007A0881008830F9004135FA000130FA351B
:101F4200FF3E031DA02F7A35203E860087017908C7
:101F520081000530F9007908F10041088A317022C8
:101F62008E31013EB13E8600870101088B31FC2390
:101F72008E3120004135FA000130FA35FF3E031D53
:101F8200BE2F7A35063E203E860087017708C03F85
:101F92007808C13F0530F9007908F10041088A311B
:101FA20070228E31033EB13E860087010108FA009D
:101FB20020004135FB000130FB35FF3E031DDD2FC4
:101FC2007B35053E203E860087017A088100413537
:101FD200F9000130F935FF3E031DEB2F7935043E40
:101FE200203E8600870181010130F9007908C1078E
:101FF20002304102031C5E2F8A3107220800063498
:10200200FE340234FA34FE34FA34FA34FE34FA344A
:102012000234FE3406340234063406340234053403
:10202200013409340234A134013409340134A134B5
:102032000034053409341934013429340334153495
:102042000034253401349534033475340134813439
:102052000234953401347534053481340334053443
:10206200013409343034093431341534813425349F
:102072007F34753408349534023481340634C034E4
:10208200C0340934023422340034013401340234BD
:1020920080343234093404340034003401340334DB
:1020A2000034003400340934213401340134003462
:1020B2000134223432340034073405348134033499
:1020C2000834003401341234013400340234003450
:1020D200003400340834D834043400340034013479
:1020E200003401340234003401340C3403346D34CE
:1020F20000346F3400347534003473340034653482
:1021020000340A34033441340034633400346D340F
:0E2112000034653400340434033409340434DA
:00000001FF
