:1004000000008231102A08007E14823120007F080B
:10041000ED008C31332420006D08FF007E100900B0
:100420008231122AEE01EF012100C401C501C6018B
:10043000C701C801C9012200AF01B001B101B20179
:10044000B301B401B501B601B701C13084009730E2
:10045000850020308600013087000F3097319727C4
:100460007E1020008B312E2B2000C70122002A088D
:100470002000BD003D08DA005A0A860087010630D8
:100480000106031D042B5A088600870180300106EF
:10049000031D042B5A08023E86008701403FBD0021
:1004A000413FBE003E08BF003F08D7005A08860003
:1004B0008701423FD8005703031D792AC130B0009D
:1004C0009030B100C1308400903085000008BD003C
:1004D000BE013D08B2003E08B3005A08063E860041
:1004E0008701403FB400413FB5008B31AA238231E0
:1004F000512D023020005706031DAE2A580803195B
:10050000852A9731AC278231512D200058352D3E58
:10051000860001308700403FCA00413FCB004A08B7
:10052000B0004B08B1004B08BE004A08BD000230C5
:100530003D0784003E0803183E0A8500003FB200D4
:10054000013FB3005A08063E86008701403FB400D1
:10055000413FB5008B31AA238231512D0330200059
:100560005706031DDB2A5530BD003D08F000580832
:1005700089317121823171082000CD007008CC00D2
:10058000CD1FC62A9731AC278231512D2000550846
:10059000B0005608B1004D08B3004C08B2005A082C
:1005A000063E86008701403FB400413FB5008B31D5
:1005B000AA238231512D49302000BD003D08F000B2
:1005C0005A0897319227823171082000CF007008B5
:1005D000CE00CF1FEF2A9731AC278231512D20005A
:1005E0004908B0000030B1004F08B3004E08B20017
:1005F0005A08063E86008701403FB400413FB500DF
:100600008B31AA238231512D20005A0A860087019E
:1006100005300106031D1A2B2200B201B20A200088
:100620005A0886008701423F2200B1009731A42773
:100630008231512D20005A0A8600870109300106B7
:10064000031D352B5A0886008701423FD000500811
:100650008231032282319731A42782312000500851
:10066000BD003D082100C900512D20005A0A860016
:10067000870108300106031D512BC930B00000303E
:10068000B1000130B2000030B3005A08063E8600C7
:100690008701403FB400413FB5008B31AA2382312E
:1006A000512D20005A0A860087010108031DE02B06
:1006B0005A088600870101081F39003A031D7C2B68
:1006C00097318727823171082000C1007008C0006F
:1006D0004030B0000030B1000230B2000030B30052
:1006E0005A08063E86008701403FB400413FB500EE
:1006F0008B31AA238231512D20005A0886008701B0
:1007000001081F39023A031DDC2B5A08043E8600FB
:10071000870101080F39BD003D08D10002305102A8
:100720000318D82B0530BD003D08F0005108883172
:1007300018208231043E203E8600013087000108E7
:100740002000BE003E08D2005A08043E8600870101
:10075000403FBD00413FBE00BD1BB12B52080139D7
:10076000B32B52080239BD00BE013D08C5003E084A
:10077000C600450846040319BF2B0130C02B0030CA
:10078000BD003D08C200C3014230B0000030B100DE
:100790000230B2000030B3005A08063E86008701DE
:1007A000403FB400413FB5008B31AA238231512D27
:1007B0009731AC278231512D9731AC278231512DA1
:1007C00020005A0A860087010B300106031D032C06
:1007D0005A0886008701423FF0005A08043E86000E
:1007E000870101088731FE2782312000BD003D08C6
:1007F000C400C41FFF2B9731AC278231512D973194
:10080000A4278231512D20005A0A860087010A3020
:100810000106031D322C5A08043E86008701010898
:100820009731852782312000BD003D08D300D31FBA
:100830001D2C9731AC278231512D53302000B00050
:100840000030B1000130B2000030B3005A08063E5B
:1008500086008701403FB400413FB5008B31AA2399
:100860008231512D20005A0A8600870101030319A5
:10087000402C5A0A8600870103300106031D4F2DC4
:10088000C801C80A5A088600870101081F39023AC0
:10089000031D442D5A08023E8600870116000104FC
:1008A000031D442D5A08043E8600870101080F39B4
:1008B000BD003D08D9005A08043E860087010108A2
:1008C0008039BD003D08D400023059020318442D80
:1008D0005A0A8600870103300106031D9B2C540829
:1008E0000319862C0530BD003D08F00059088831F9
:1008F00018208231043E203E86000130870081149A
:10090000200059088931422182312C2D05302000E8
:10091000BD003D08F0005908883118208231043E9E
:10092000203E8600013087000114200059088831DC
:10093000FB2082312C2D200054080319DE2C0530B9
:10094000BD003D08F0005908883118208231033E6F
:10095000203E86000130870001082000BE00593586
:10096000BF000130BF35FF3E031DB22C3F35053EB1
:10097000203E860087013E0881005935BD000130C8
:10098000BD35FF3E031DC02C3D35043E203E860094
:1009900087018101F730BD000530BE003E08F00040
:1009A0005908883118208231043E203E86000130EB
:1009B000870020003D088105FD301B2D0530BD005E
:1009C0003D08F0005908883118208231023E203E4F
:1009D00086000130870001082000BE005935BF00A5
:1009E0000130BF35FF3E031DF12C3F35013E203E57
:1009F000860087013E0881008830BD005935BE0061
:100A00000130BE35FF3E031D012D3E35203E8600E0
:100A100087013D0881000530BD003D08F000590800
:100A2000883118208231043E203E86000130870044
:100A30000115FE302000BD000530BE003E08F0006C
:100A40005908883118208231043E203E860001304A
:100A5000870020003D08810520005A0A8600870192
:100A600003300106031D362D0130372D0030BD0047
:100A70003D08F0005A08043E8600870101089731BE
:100A80007A2782312000C8014808031D4B2D973179
:100A9000A4278231512D9731AC278231512DC701C6
:100AA000C7032000470808002000E500650886000D
:100AB0008701443FE400650A86008701063001068D
:100AC000031DCC2D65088600870181300106031DBA
:100AD000CC2D6508023E86008701403FC400413F9F
:100AE000C5004508C6004608DA00FF30E200FF30C6
:100AF000E30021305A06031D8A2D6030C4004408EB
:100B0000F00064089731E027853171082000E30088
:100B100070089A2D22305A06031D9B2D6030C400A8
:100B20004408F00064089731F027853171082000EF
:100B3000E3007008E200E31F9F2DFF300800650806
:100B4000063E86008701403FC400413FC50045087E
:100B50006302031DAD2D44086202031CB82D650815
:100B6000063E86008701403FD400413FD500BC2DA2
:100B70006308D5006208D4006008BD006108BE00AB
:100B80005508C0005408BF000030C100C200C301B6
:100B900088318F2000300800FF302000DE00FF3059
:100BA000DF00650A860087010103031D412E6508E9
:100BB00086008701A1300106031D412E6508023E13
:100BC00086008701403FC400413FC5004508C6007C
:100BD0004608C900650886008701423FCA004908E7
:100BE000C4004408F0004A08C5004508F1005C3024
:100BF000C6004608F2005830C7004708F3005D30D1
:100C0000C8004808F40064088831A92085317108BB
:100C10002000DF007008DE00DF1F102EFF3008000C
:100C20006508063E86008701403FC400413FC5007D
:100C300045085F02031D1E2E44085E02031C292E78
:100C40006508063E86008701403FD600413FD70039
:100C50002D2E5F08D7005E08D6005C08BD0001306D
:100C6000BE005708C0005608BF005808C100590808
:100C7000C2005D08C4004408C30088318F200030E2
:100C800008002000650A8600870109300106031D5F
:100C9000722E65088600870121300106031D722E21
:100CA0006508023E86008701403FC400413FC50001
:100CB0004508C6004608CB00650886008701423F0C
:100CC000CC004B08C4004408F0004C08C50045089F
:100CD000F1006408973183272000C6004608CD0044
:100CE0004D080800650A8600870102300106031DD1
:100CF000A12E650886008701A1300106031DA12EE3
:100D0000650886008701423FCE004E08C4004408B3
:100D1000F000640897317B2785312000C500450825
:100D2000CF004F30BD000030BE000130BF000030AA
:100D3000C0000030C100C200C30188318F200030E4
:100D400008002000650A860087010A300106031D9D
:100D5000D22E65088600870121300106031DD22EA0
:100D60006508023E86008701403FC400413FC50040
:100D70004508C6004608D000650886008701423F46
:100D8000D1005108C4004408F0005008C5004508CF
:100D9000F100640897317F272000C6004608D20082
:100DA00052080800650A8600870103300106031D0A
:100DB000FC2E650886008701A1300106031DFC2E6C
:100DC000640897317D2785312000C4004408DB008A
:100DD000DB1FEC2EFF3008005B30BD000030BE0092
:100DE0000130BF000030C0000030C100C200C301AC
:100DF00088318F20003008002000650A86008701B6
:100E00000B300106031D192F65088600870121306C
:100E10000106031D192F650886008701423FF00077
:100E20006408973181272000C4004408D300530888
:100E30000800FF300800220032080319242F31086F
:100E40003D0096002200B201210044084504031928
:100E50007F2F00304502083003194402031C362F4F
:100E600008302000B0000030B1003E2F21004508BE
:100E70002000B100210044082000B0003008FA0032
:100E80007A08B20022002B088600870122002F0872
:100E900084003008850020003208FA0012001E008D
:100EA000FA0B4E2F20003208FA00FB017A082100CD
:100EB000C4027B08C53B20003208FA00FB017A0817
:100EC0002200AF077B08B03D210044084504031D04
:100ED000742F083020003206031D742F22003408BE
:100EE0000319742FB301B30A20003208FA00FB0182
:100EF0007A08F6007B08F7008931192108002200E2
:100F0000330803198E2F0030F600F70089311921BC
:100F100087312200B3019731B62708002100470826
:100F2000031D080020006E086F040319A42FF001B0
:100F3000F00A21004608FA007A08F10020006F0844
:100F40008A006E080A0087319731B6270800210011
:100F5000B8003808BA000030BB0020303B02003037
:100F600003193A02031CB92F3B08AC003A08AB0046
:100F700008003B08AD002D08B7003A08AD002D0869
:100F8000B90039088039AD00AE013708AF00B001B3
:100F9000AF35B00D2D082F07B1002E08303DB2003F
:100FA000310832040319D62F0130D72F0030B30097
:100FB000B4013308A5003408A6005030A700003063
:100FC000A8008831DF20210039087F392507B500C6
:100FD00026080318260AB6003508E03EAB001F308D
:100FE000363DAC0008002200AF01B0012100C8016D
:100FF000C401C5012000EE01EF0108000030080027
:1010000008302000A1008030F0007008A000080027
:101010002100AA000530A9002908A5002A08883166
:101020003A20013E203E860001308700010808007A
:10103000F200F301721C20287008F1007108F30718
:101040000310F00D0310F20C7208031D1A28730828
:1010500008002100AA000530A9002908A5002A08D7
:1010600088313A20043E203E860001308700010886
:10107000023908002100A800A701281C43282508E0
:10108000A6002608A7070310A50D0310A80C280822
:10109000031D3D28270808002100A6002635A500CD
:1010A0000130A535FF3E031D51282535043E203E65
:1010B00086008701010D010D013908007008F60056
:1010C0007108F7000130F4020030F53B740A03198F
:1010D000750A0319080076088600770887007208E9
:1010E00081000130F6070030F73D62282100250815
:1010F000AB002608AC000130A9020030AA3B290A47
:1011000003192A0A031908002B0886002C088700F7
:10111000270881000130AB070030AC3D7B28200060
:101120004108EE004208EF004308FC007C08210063
:10113000C60020003D08B0003E08B1004008B300E2
:101140003F08B2004008B5003F08B4008B31AA2325
:1011500008003530F50072088600870175088100A7
:101160007930F5001730F60073088600870175089E
:10117000C03F7608C13F74088600870181010330B3
:10118000F0000030F1000800F401F501701CCC28DB
:101190007208F4077308F53D0130F235F30D890B41
:1011A000CD280130F136F00C890BD228700871047B
:1011B000031DC6287508F1007408F000080021001E
:1011C000A901AA01251CE8282708A9072808AA3D83
:1011D0000130A735A80D890BE9280130A636A50CEA
:1011E000890BEE2825082604031DE2282A08A600FC
:1011F0002908A5000800F2007235F0000130F03532
:10120000FF3E031DFF287035013E203E860087010A
:1012100081018430F0007235F1000130F135FF3E7C
:10122000031D0E297135203E86008701700881005C
:10123000080000309731D0278931003A031D08009B
:101240002200AC1D2529013026290030F80078083D
:10125000F9002000A4017908031934297608F80060
:101260007808A500C83039297608F8007808A50064
:101270008830F8007808A4000830F80078082200C8
:10128000AC060800F7000530F4007408F000770899
:10129000883118208931033E203E860001308700C6
:1012A0000108F5007735F6000130F635FF3E031DE5
:1012B00055297635053E203E860087017508810058
:1012C0008430F4007735F5000130F535FF3E031D1D
:1012D00065297535043E203E86008701740881002B
:1012E0000800F4007408031D8529D330F200903003
:1012F000F3007008860087017208C03F7308C13F81
:101300000430F0000030F10008007403031D982938
:101310004A30F2009030F3007008860087017208AE
:10132000C03F7308C13F3030F0000030F1000800CA
:1013300002307406031DAC29A330F2009030F30094
:101340007008860087017208C03F7308C13F1E30D5
:10135000F0000030F100080003307406031DB529C9
:10136000FF30F000FF30F1000800FF30F000FF30E8
:10137000F100080022002A082000E6006608E800C4
:101380006808860087010030811B01302100C700FA
:1013900097319D2789312100440845040319E42928
:1013A00020006E086F040319E129F00121004608AE
:1013B0002000E6006608F1006F088A006E080A0047
:1013C00089319731B6278931200068088600870166
:1013D000010E890C0339003A031DF72982313422AA
:1013E00089312000E6006608E700E71F032A680845
:1013F00097318D2789312000E6006608E700E71F56
:10140000032A9731AC273D000E120800F800780837
:10141000FB000030FC0020307C02003003197B020E
:10142000031C172A7C08F7007B08F60008007C08DC
:101430002000B0003008F9007B08B0003008FA0046
:101440007A088039B000B1017908B200B301B23531
:10145000B30D30083207B4003108333DB50034080D
:1014600035040319352A0130362A0030B600B70199
:101470003608F0003708F1005030F2000030F30079
:101480008831C4207A087F3970072000B8007108BD
:101490000318710AB9003808E03EF6001F30393DE4
:1014A000F70008002100B0004908031908003008BF
:1014B000883129208A31003A031D08002100303587
:1014C000AD000130AD35FF3E031D622A2D35043ECF
:1014D000203EAE002E08B1000530AD002D08A5005D
:1014E000300888313A208A31043E203E860001309F
:1014F0008700811D7D2A01307E2A00302100AE0048
:101500002E08AF0031088600870181012F080319DA
:10151000922A2B08AD00310A860087012D08810030
:10152000C8309A2A2B08AD00310A860087012D08A1
:1015300081008830AD003108860087012D088100C8
:101540000830AD000530AE002E08A5003008883107
:101550003A20043E203E86000130870021002D08FD
:101560008106080020002108F2007208F600210020
:101570004703031DD02A20006E086F040319CD2AEB
:10158000F001F00A21004608F2007208F100200084
:101590006F088A006E080A008A319731B627080062
:1015A00021004808031908007608F200F3014508F5
:1015B0007302031DDD2A44087202031CE42A450855
:1015C000F5004408F400EB2A7608F200F3017208F3
:1015D000F4007308F5007408F2007208F700480878
:1015E0008600870122002A08840085017708F2001E
:1015F00012001E00F20BF82A7708F2007208210090
:10160000C8077708F200F3017208C4027308C53BEB
:1016100008307602031C102B44084504031D080003
:101620007608770203182B2B9731AC278A312000DC
:101630006E086F040319282BF00121004608F20000
:101640007208F10020006F088A006E080A008B31D2
:101650009731B62708009731A42708000B178B177E
:101660008E319A268B3164302100C200420822005C
:10167000BA0007302100C20042082200BB00BC01B2
:10168000BC0A97318A278B31003A0319412B01306C
:10169000883129208B31003A031D412B01308831DC
:1016A0004C208B31003A031D412B0130883108203A
:1016B0008B312100C20042082200BD003D08860097
:1016C000870181010130BB02031D6C2B3C08B8006F
:1016D000B901B81BB9036E2BB801B9013808210054
:1016E000C20022003D0A86008701210042088100D5
:1016F00022003D08023E860087018101033021005F
:10170000AB000030AC0001308A3152228B31220014
:101710003B08031D412B0130BA02031DA32B64308B
:101720002100C20042082200BA003C082100C20089
:101730004208A500FF3088313A208B312100C300D8
:1017400043082200BC0007302100C20042082200EA
:10175000BB00412B00302000330208300319320255
:10176000031CB72B0830B6000030B700BB2B330882
:10177000B7003208B6003608FA007A08BC003C0808
:10178000FA00FB0135087B02031DC82B34087A02DE
:10179000031CCF2B3508B9003408B800D62B3C0801
:1017A000FA00FB017A08B8007B08B9003808FA0093
:1017B0007A08BC0035083302031DE02B34083202DE
:1017C0000318E42B0130E52B0030FA007A082200E0
:1017D000B4002B08860087012000300884003108FF
:1017E00085003C08FA0012001E00FA0BF32B2000C3
:1017F0003C08FA00FB017A0830072200AF007B08A2
:101800002000313D2200B000200033083502031DC6
:101810000B2C32083402031C112C3308BB00320895
:10182000142C3508BB003408BA003C08FA00FB0150
:10183000FA09FB09FA0A0319FB0A3A087A07210098
:10184000C40020003B087B3D2100C5002200AC15F0
:1018500020003C08FA00FB017A08F6007B08F7003C
:101860008931192108003D00101C3E2C9731782742
:101870008C318D3140258C313D001010901E802C14
:1018800001302100A3000030A4002408803A200089
:10189000E90080306902031D502C02302100230230
:1018A00003187E2C98302000E9000E30EA00210059
:1018B000230820006907EB002100240820006A3D6E
:1018C000EC006B082100A00020006C082100A100A2
:1018D000200886002108870001100130A30700308E
:1018E000A43D2408803A2000E90080306902031DED
:1018F0007C2C023021002302031C522C3D0090124C
:10190000901D342D0F0C2000E900E90C690C0F39F3
:10191000003A031DB12C3D000F19B12C2000200C02
:10192000890C0F39E90069082100A2000D30220658
:10193000031D9E2C8931BA218C31AD2C0930210038
:1019400022060319AD2C2203031DAA2C8A31B222D0
:101950008C31AD2C9731AC278C31883100208C3103
:10196000322D3D000F0C2000E900E90C690C0F3905
:10197000003A031DC22C3D000F1DC22C87311B27CE
:101980008C31322D3D000F0C2000E900E90C690C70
:101990000F39003A0319322D3D000F0C2000E900E9
:1019A000E90C690C0F39EA0002306A020318322D83
:1019B0003D000F1D072D05302000E9006908F000EB
:1019C0003D000F0C2000EA00EA0C6A0C0F39883148
:1019D00018208C31043E203E860001308700811C97
:1019E000FC2C3D000F0C2000E900E90C690C0F39BC
:1019F000893142218C31322D3D000F0C2000E9004D
:101A0000E90C690C0F39973175278C31322D05306F
:101A10002000E9006908F0003D000F0C2000EA00FA
:101A2000EA0C6A0C0F39883118208C31043E203EB4
:101A3000860001308700011C282D3D000F0C20007E
:101A4000E900E90C690C0F398831FB208C31322D0B
:101A50003D000F0C2000E900E90C690C0F399731AB
:101A600076278C313D009011101F3B2D9731772741
:101A70008C313D0010132000121D080012110800C7
:101A80003D0011109110920197018E15111611153C
:101A900090119011901190119001921592161214BC
:101AA00012179830F0000E30F1000030F200F30011
:101AB0001030F4000030F50088315E208D313D009B
:101AC000181698111815981418102000BF01BF0A95
:101AD00002303F020318972D3F08983EBA00BB0121
:101AE0000E30BB3D3A08BD003B08BE003D088600F5
:101AF0003E08870001163D0886003E0887008115D4
:101B00003D0886003E08870001153D0886003E0816
:101B1000870081143D0886003E08870001100130CF
:101B2000BA003A08BF0702303F02031C6C2D3D008B
:101B300096012200B2012100C9012200AC0120005F
:101B4000BF0102303F020318BF2D0430BA00053038
:101B5000BB003B08F0003F08883118208D31043E5F
:101B6000203E86000130870020003A0881000130C5
:101B7000BA003A08BF0702303F02031CA52D2030EF
:101B8000F0000030F1000030F200F3001030F400FB
:101B90000030F50088315E208D3122002A088A311C
:101BA00006228D3177082000A3007608A2000830B5
:101BB000A1008030BA003A08A00022002B088A3128
:101BC00006228D3177082000A7007608A60008308D
:101BD000BA003A08A500A401BF01BF0A02303F02C3
:101BE0000318952E0530BA003A08F0003F088831F6
:101BF00018208D31203E86000130870001088A318F
:101C000006228D3120003F35BB000130BB35FF3E41
:101C1000031D062E3B35023E203E860087017608D6
:101C2000C03F7708C13F0530BA003A08F0003F08CE
:101C3000883118208D31023E203E86000130870019
:101C400001082000BB003F35BC000130BC35FF3E21
:101C5000031D262E3C35013E203E860087013B08B1
:101C600081008830BA003F35BB000130BB35FF3EF4
:101C7000031D362E3B35203E860087013A08810041
:101C80000530BA003A08F0003F08883118208D313D
:101C9000013E203E86000130870001088A3106227D
:101CA0008D3120003F35BB000130BB35FF3E031DA9
:101CB000552E3B35063E203E860087017608C03F04
:101CC0007708C13F0530BA003A08F0003F08883174
:101CD00018208D31033E203E860001308700010828
:101CE0002000BB003F35BC000130BC35FF3E031D6A
:101CF000752E3C35053E203E860087013B0881005D
:101D00003F35BA000130BA35FF3E031D832E3A3508
:101D1000043E203E8600870181010130BA003A0866
:101D2000BF0702303F02031CF22D9731B627210076
:101D3000121508003D0011109110920197018E15A7
:101D4000111611159011901190119011900192158A
:101D500092161214121798302100A5000E30A6001A
:101D60000030A700A8001030A9000030AA00883178
:101D700076208E313D0018169811181598141810F9
:101D80002100C101C10A023041020318F22E4108AC
:101D9000983EBC00BD010E30BD3D3C08BF003D0873
:101DA000C0003F0886004008870001163F088600F3
:101DB0004008870081153F0886004008870001150C
:101DC0003F0886004008870081143F0886004008CD
:101DD000870001100130BC003C08C10702304102FD
:101DE000031CC72E3D0096012200B2012100C9014B
:101DF0002200AC012100C1010230410203181A2F58
:101E00000430BC000530BD003D08A5004108883104
:101E10003A208E31043E203E8600013087002100AA
:101E20003C0881000130BC003C08C107023041027F
:101E3000031C002F2030A5000030A6000030A700B2
:101E4000A8001030A9000030AA00883176208E3119
:101E500022002A088731A7278E3121002C08200074
:101E6000A30021002B082000A2000830A100803030
:101E70002100BC003C082000A00022002B08873174
:101E8000A7278E3121002C082000A70021002B0855
:101E90002000A60008302100BC003C082000A5005E
:101EA000A4012100C101C10A023041020318FB2F25
:101EB0000530BC003C08A500410888313A208E312D
:101EC000203E86000130870001088731A7278E3128
:101ED00021004135BD000130BD35FF3E031D6C2F93
:101EE0003D35023E203E860087012B08C03F2C086E
:101EF000C13F0530BC003C08A500410888313A20AC
:101F00008E31023E203E860001308700010821000C
:101F1000BD004135BE000130BE35FF3E031D8C2F94
:101F20003E35013E203E860087013D088100883015
:101F3000BC004135BD000130BD35FF3E031D9C2F67
:101F40003D35203E860087013C0881000530BC00FD
:101F50003C08A500410888313A208E31013E203EE0
:101F600086000130870001088731A7278E312100C4
:101F70004135BD000130BD35FF3E031DBB2F3D3552
:101F8000063E203E860087012B08C03F2C08C13F3B
:101F90000530BC003C08A500410888313A208E314C
:101FA000033E203E86000130870001082100BD006D
:101FB0004135BE000130BE35FF3E031DDB2F3E35EF
:101FC000053E203E860087013D0881004135BC006A
:101FD0000130BC35FF3E031DE92F3C35043E203E59
:101FE0008600870181010130BC003C08C107023036
:101FF0004102031C582F8731F327210012150800D6
:1020000018340334493400346E34003474340034EA
:102010006534003472340034663400346134003482
:1020200063340034653400342034003431340034F7
:102030000534013409340234A13401340934013443
:10204000A1340034053409341934013429340334FB
:102050001534003425340134953403347534013497
:1020600081340234953401347534053481340334B9
:1020700005340134093430340934313415348134B1
:1020800025347F3475340834953402348134063471
:10209000C034C03430340334533400346934003431
:1020A000673400346E340034613400346C340034EE
:1020B00020340034313400343134003420340034DE
:1020C000533400346F3400346634003474340034D4
:1020D00077340034613400347234003465340034B1
:1020E000203400344C3400344C3400344334003455
:1020F0002E340034093402342934003401340134DC
:10210000023480343234093404340034003402346C
:1021100003340034003402340934213401340134EE
:10212000003401342234323400340734053481342D
:1021300003340834003401340734053401340334E3
:102140000834003401341E3403345534003453341D
:10215000003442340034203400344D3400346F34C1
:102160000034753400347334003465340034203462
:10217000003444340034653400346D3400346F343A
:10218000003412340134003402340034003400349A
:102190000834A034A0340334003401340034013452
:0E21A0000234003401340434033409340434AE
:102EEA000800080008000800080008000030080070
:102EFA0001300800FF300800FF300800FF300800EA
:102F0A0000300800F001F10108002100490808001A
:102F1A00FD007D08853154250800FF30F000FF30A0
:102F2A00F1000800FE0012001E00FE0B982F00346C
:102F3A000830F00070082000A500A4010800200055
:102F4A00A401A501C830F0007008A40008000830E8
:102F5A00F00070082000A5008430F0007008A4007A
:102F6A0008002200AF01B0012100C801C401C50157
:102F7A002000EE01EF010800003400340034003470
:102F8A000034E034E834083408340034D034D83417
:102F9A0000347A349034F5000530F4007408F000F7
:102FAA00750888311820043E203E860001308700CB
:102FBA000108023908008C30F3009030F4007008E0
:102FCA00860087017308C03F7408C13F0930F000CA
:102FDA000030F10008001830F2009030F300700859
:102FEA00860087017208C03F7308C13F3230F00083
:062FFA000030F1000800A8
:00000001FF
