:06040000000082310B2A0E
:10040800823120007F08F0007008FF000900823167
:100418000D2AFC01E901EA01EB01EC012100B5011B
:10042800B601B701B801B901BA01BB01BC01BD01F0
:10043800E83084008B308500A030860000308700CB
:100448000030FF0015308B31552320008E318C2E63
:100458002000CA0121002E082000D80021002F0802
:100468002000D90058088600590887004131063015
:100478000106031DE32A58088600590887008030C2
:100488000106031DE32A58088600590887004231EF
:10049800403FBF00413FC0004008C1004108D300B1
:1004A800580886005908870042310108BF003F08F4
:1004B800D4005303031D7C2A4530B0009030B100AE
:1004C80045308400903085000008BF00C0013F0817
:1004D800B2004008B3005808860059088700463122
:1004E800403FB400413FB500873144278231032D96
:1004F800023020005306031DB12A54080319882A24
:100508008B3136238231032D20005435B33E8600CB
:100518008701403FCC00413FCD004C08B0004D085A
:10052800B1004D08C0004C08BF0002303F078400EE
:1005380040080318400A8500003FB200013FB3009D
:1005480058088600590887004631403FB400413FAB
:10055800B500873144278231032D0330200053062C
:10056800031DDF2A5530BF003F08F10054088C31C5
:100578009524823172082000CF007108CE00CF1F69
:10058800C92A8B3136238231032D20005508B0004B
:100598005608B1004F08B3004E08B200580886004C
:1005A800590887004631403FB400413FB5008731C4
:1005B80044278231032D8B3136238231032D2000CD
:1005C8005808860059088700413105300106031D87
:1005D800FF2A2100BA01BA0A2000580886005908E3
:1005E800870042310108BF003F082100B9008B3164
:1005F80026238231032D20005808860059088700D9
:10060800413109300106031D1B2B58088600590883
:10061800870042310108BF003F08C6008B312623FE
:10062800823120004608BF003F08EC00032D58081F
:10063800860059088700413108300106031D392B0F
:100648006C30B0000030B1000130B2000030B300AF
:1006580058088600590887004631403FB400413F9A
:10066800B500873144278231032D200058088600C1
:100678005908870041310108031DC92B5808860015
:100688005908870001081F39003A031D622BC2016F
:10069800C3014230B0000030B1000230B200003077
:1006A800B30058088600590887004631403FB40017
:1006B800413FB500873144278231032D2000580877
:1006C80086005908870001081F39023A031DC52B07
:1006D8005808860059088700443101080F39BF00BF
:1006E8003F08D000023050020318C12B0730BF006A
:1006F8003F08F10050088B3190238231063EA03E1E
:100708008600870101082000C0004008D100580871
:100718008600590887004431403FBF00413FC00070
:10072800BF1B992B510801399B2B51080239BF0077
:10073800C0013F08C8004008C90048084904031917
:10074800A72B0130A82B0030BF003F08C400C5010B
:100758004430B0000030B1000230B2000030B300C5
:1007680058088600590887004631403FB400413F89
:10077800B500873144278231032D8B3136238231EE
:10078800032D8B3136238231032D20005808860033
:100798005908870041310B300106031DD72B8B31D7
:1007A80026238231032D2000580886005908870027
:1007B80041310A300106031DF72BC7014730B0004D
:1007C8000030B1000130B2000030B3005808860094
:1007D800590887004631403FB400413FB500873192
:1007E80044278231032D20005808860059088700C5
:1007F800413101030319092C58088600590887005C
:10080800413103300106031D012DCB01CB0A5808E5
:1008180086005908870001081F39023A031DF62C83
:100828005808860059088700423116000104031D44
:10083800F62C5808860059088700443101080F39FA
:10084800BF003F08D7005808860059088700443180
:1008580001088039BF003F08D20002305702031850
:10086800F62C5808860059088700413103300106E4
:10087800031D682C52080319542C0730BF003F0889
:10088800F10057088B3190238231063EA03E860046
:1008980087018114200057088731CB278231F42C37
:1008A80007302000BF003F08F10057088B31902324
:1008B8008231063EA03E86008701011420005708B9
:1008C8008C314E248231F42C200052080319A92CB3
:1008D8000730BF003F08F10057088B319023823161
:1008E800053EA03E8600870101082000C00057355C
:1008F800C1000130C135FF3E031D7E2C4135053E48
:10090800203E86008701400881005735BF0001302E
:10091800BF35FF3E031D8C2C3F35043E203E86002C
:1009280087018101F730BF000730C0004008F1009F
:1009380057088B3190238231063EA03E86008701FE
:1009480020003F088105FD30E42C0730BF003F0838
:10095800F10057088B3190238231043EA03E860077
:10096800870101082000C0005735C1000130C1359A
:10097800FF3E031DBB2C4135013E203E860087010A
:10098800400881008830BF005735C0000130C035AD
:10099800FF3E031DCB2C4035203E860087013F08D3
:1009A80081000730BF003F08F10057088B319023C2
:1009B8008231063EA03E860087010115FE302000E8
:1009C800BF000730C0004008F10057088B31902362
:1009D8008231063EA03E8600870120003F0881053F
:1009E8002000CB014B08031DFD2C8B3126238231BF
:1009F800032D8B3136238231032DCA01CA0320000F
:100A08004A0808003D0011109110920197018E15B7
:100A180011161115901190119011901190019830A4
:100A2800F1000E30F2000030F300F4001030F50051
:100A38000030F6008B31FD2385313D0018169811E2
:100A48001815981418102000C001C00A023040027E
:100A58000318592D4008983EF900FA010E30FA3D66
:100A68007908BE007A08BF003E0886003F08870064
:100A780001163E0886003F08870081153E0886005B
:100A88003F08870001153E0886003F08870081144B
:100A98003E0886003F08870001100130F9007908F8
:100AA800C00702304002031C2E2D3D009601210094
:100AB800BA012000EC012100B2012000C00102307F
:100AC80040020318802D0430F9000730FA007A0834
:100AD800F10040088B3190238531063EA03E860008
:100AE8008701790881000130F90079082000C007E2
:100AF80002304002031C672D2030F1000030F20064
:100B08000030F300F4001030F5000030F6008B31AF
:100B1800FD23853121002E08F7002F08F8008D31BC
:100B28001625853178082000A3007708A200083030
:100B3800F9007908A1008030F9007908A0002100A7
:100B48003008F7003108F8008D311625853178080E
:100B58002000A7007708A6000830F9007908A5004A
:100B6800A401C001C00A023040020318602E0730F9
:100B7800F9007908F10040088B3190238531A03EB7
:100B880086008701403FF700413FF8008D31162568
:100B9800853120004035FB000130FB35FF3E031D49
:100BA800D12D7B35023E203E860087017708C03F65
:100BB8007808C13F0730F9007908F10040088B3107
:100BC80090238531043EA03E860087010108FA0083
:100BD80020004035FB000130FB35FF3E031DF02DA2
:100BE8007B35013E203E860087017A0881008830E7
:100BF800F9004035FA000130FA35FF3E031D002E9A
:100C08007A35203E86008701790881000730F9008F
:100C18007908F10040088B3190238531023EA03ECF
:100C280086008701403FF700413FF8008D311625C7
:100C3800853120004035FB000130FB35FF3E031DA8
:100C4800212E7B35063E203E860087017708C03F6F
:100C58007808C13F0730F9007908F10040088B3166
:100C680090238531053EA03E860087010108FA00E1
:100C780020004035FB000130FB35FF3E031D402EB0
:100C88007B35053E203E860087017A088100403585
:100C9800F9000130F935FF3E031D4E2E7935043E2B
:100CA800203E8600870181010130F9007908C007DC
:100CB80002304002031CBB2D8B314A2308003D0043
:100CC800101C6B2E8531062586313D001010901EB4
:100CD800A22E01302000E5000030E6006608803AC8
:100CE800DE0080305E02031D7B2E02306502031891
:100CF800A02E98302000DE000E30DF0065085E0769
:100D0800E00066085F3DE1006008E2006108E3007A
:100D1800620886006308870001100130E50700308B
:100D2800E63D6608803ADE0080305E02031D9E2E96
:100D380002306502031C7D2E3D009012901D3D2F50
:100D48000F0C2000DE00DE0C5E0C0F39003A031D8C
:100D5800D22E3D000F19D22E2000200C890C0F39FD
:100D6800DE005E08E4000D306406031DBF2E8C31E2
:100D7800D5248631CE2E0930200064060319CE2EE4
:100D88006403031DCB2E8D3161258631CE2E8B3128
:100D9800362386318B31402386313B2F3D000F0CA3
:100DA8002000DE00DE0C5E0C0F39003A031DE32E36
:100DB8003D000F1DE32E8E31172686313B2F3D0057
:100DC8000F0C2000DE00DE0C5E0C0F39003A031910
:100DD8003B2F3D000F0C2000DE00DE0C5E0C0F39AF
:100DE800DF0002305F0203183B2F3D000F1D1C2F50
:100DF80007302000DE005E08F1003D000F0C2000E7
:100E0800DF00DF0C5F0C0F398B3190238631063EF3
:100E1800A03E86008701811C3B2F3D000F0C20005F
:100E2800DE00DE0C5E0C0F398731CB2786313B2F75
:100E380007302000DE005E08F1003D000F0C2000A6
:100E4800DF00DF0C5F0C0F398B3190238631063EB3
:100E5800A03E86008701011C3B2F3D000F0C20009F
:100E6800DE00DE0C5E0C0F398C314E2486313D00DD
:100E78009011101B10132000121D080012110800F9
:100E8800003020003302083003193202031C512FAE
:100E98000830B8000030B900552F3308B9003208BF
:100EA800B8003808B6003608BE003E08B600B701DC
:100EB80035083702031D622F34083602031C692FD8
:100EC8003508BB003408BA00702F3E08B600B701D9
:100ED8003608BA003708BB003A08B6003608BE0024
:100EE80035083302031D7A2F3408320203187E2F87
:100EF80001307F2F0030B60036082100BD003008D1
:100F080086003108870020003008840031088500F9
:100F18003E08B60012001E00B60B8E2F20003E08B9
:100F2800B600B701360830072100B700200037089F
:100F3800313D2100B800200033083502031DA62FDB
:100F480032083402031CAC2F3308BD003208AF2F1F
:100F58003508BD003408BC003E08B600B701B60924
:100F6800B709B60A0319B70A3C083607E9003D086D
:100F7800373DEA002100B21520003E08B600B7014F
:100F88003608F7003708F8008C316C240800F800A0
:100F98000730F5007508F10078088B319023873108
:100FA800053EA03E860087010108F6007835F70067
:100FB8000130F735FF3E031DDD2F7735053E203E16
:100FC80086008701760881008430F5007835F600C0
:100FD8000130F635FF3E031DED2F7635043E203EE9
:100FE800860087017508810008000830F100710843
:080FF8002000A500A40108007F
:1016460020006C0808002000A401A501C830F100A4
:101656007108A400080020005308C6005408C700FB
:101666008F317D2708000830F10071082000A500A1
:101676008430F1007108A40008000830F1007108F8
:101686002000A1008030F1007108A00008002100B0
:10169600B701B801FC012000E901EA012100B5010A
:1016A600B6010800FE0012001E000130FE020030E6
:1016B600FF3B7F087E0403190034562BF6000730E3
:1016C600F5007508F10076088B319023063EA03EA2
:1016D600860087010108023908001230F4009030B4
:1016E600F5007108860087017408C03F7508C13F80
:1016F6000930F1000030F20008002930F300903084
:10170600F4007108860087017308C03F7408C13F62
:101716001C30F1000030F2000800F400F301741CE4
:10172600982B7108F2007208F3070310F10D0310ED
:10173600F40C7408031D922B73080800F800073098
:10174600F6007608F10078088B319023023EA03E21
:1017560086008701403FF500413FF6000800F20091
:101766007235F1000130F135FF3E031DB62B7135A0
:10177600043E203E86008701010D010D0139080057
:10178600F2007235F1000130F135FF3E031DC72B23
:101796007135203E860087010310811F0314003037
:1017A600093D0800F7000730F6007608F1007708D3
:1017B6008B319023A03E8600870175088400850141
:1017C600403F803F413F813F0800003400340034F1
:1017D600003400340034003490342034D0342034C3
:1017E600403440340034803420348834203400348B
:1017F600003490347108F7007208F8000130F502E1
:101806000030F63B750A0319760A031908007708B3
:10181600860078088700730881000130F7070030DA
:10182600F83D012CF501F601711C1D2C7308F50716
:101836007408F63D0130F335F40D890B1E2C01308A
:10184600F236F10C890B232C71087204031D172C38
:101856007608F2007508F100080020004308210010
:10186600B500200044082100B60020004508FB0012
:101876007B082100BC0020003F08B0004008B100F2
:101886004208B3004108B2004208B5004108B4005E
:10189600873144270800F3007335F1000130F13534
:1018A600FF3E031D522C7135013E203E8600870106
:1018B60081018430F1007335F2000130F235FF3ECC
:1018C600031D612C7235203E860087017108810058
:1018D600080000308B3161238C31003A031D08006B
:1018E6002100B21D782C0130792C0030F9007908DE
:1018F600FA002000A4017A080319872C7708F9005A
:101906007908A500C8308C2C7708F9007908A5005D
:101916008830F9007908A4000830F9007908210018
:10192600B2060800F5007508031DA92C6F30F300F8
:101936009030F4007108860087017308C03F740870
:10194600C13F0430F1000030F20008007503031DAA
:10195600BC2C6530F3009030F400710886008701D6
:101966007308C03F7408C13F0A30F1000030F2002E
:10197600080002307506031DD02C5730F300903056
:10198600F4007108860087017308C03F7408C13FE0
:101996000E30F1000030F2000800FF30F100FF3099
:1019A600F200080021002E082000DC0021002F088C
:1019B6002000DD005C0886005D0887000030811B82
:1019C6000130EB008731F9278C31200069086A0461
:1019D6000319F02C8B314A238C3120005C088600D9
:1019E6005D088700010E890C0339003A031D042D9A
:1019F60082312C228C312000DA005A08DB00DB1FF2
:101A0600132D5C08D3005D08D4008B312E238C3156
:101A16002000DA005A08DB00DB1F132D8B3136233A
:101A26003D000E12080078082000BD007708BC00B3
:101A360020303D02003003193C02031C272D3D08CF
:101A4600F8003C08F70008003D08B0003008BA006E
:101A56003C08B0003008BB003B088039B000B1013B
:101A66003A08B200B301B235B30D30083207B400FC
:101A76003108333DB500340835040319442D0130CF
:101A8600452D0030B600B7013608F1003708F200E0
:101A96005030F3000030F4008C31152420003B0850
:101AA6007F397107B80072080318720AB90038083E
:101AB600E03EF7001F30393DF800080020002108FD
:101AC600F2007208F6006B03031D6C2D8B314A235E
:101AD60008007C08031908007608F200F3012000CC
:101AE6006A087302031D792D69087202031C802D92
:101AF6006A08F5006908F400872D7608F200F301FC
:101B06007208F4007308F5007408F2007208F70012
:101B16007C088600870121002E0884002F08850096
:101B26007708F20012001E00F20B952D7708F200DE
:101B36007208FC077708F200F30172082000E90238
:101B46007308EA3B08307602031CAD2D69086A0467
:101B5600031D0800760877020318B72D8B3136234C
:101B66008D318B314A2308008B3126230800200053
:101B7600B1006C080319080031088B3161238D31DF
:101B8600003A031D080020003135F9000130F9350F
:101B9600FF3E031DCA2D7935043E203EFA007A0821
:101BA600B2000730F9007908F10031088B31902333
:101BB6008D31063EA03E86008701811DE42D013051
:101BC600E52D0030FA007A082000B00032088600C1
:101BD6008701810130080319F92D7708F900320AC7
:101BE6008600870179088100C830012E7708F90040
:101BF600320A86008701790881008830F9003208A8
:101C060086008701790881000830F9000730FA005C
:101C16007A08F10031088B319023063EA03E8600FB
:101C2600870179088106080021003A080319202E49
:101C360039083D0096002100BA01200069086A04AF
:101C46000319762E00306A02083003196902031C54
:101C5600312E0830B2000030B300352E6A08B300CA
:101C66006908B2003208B0003008B400210030081C
:101C7600860031088700210037088400380885006F
:101C860020003408B00012001E00B00B462E2000C3
:101C96003408B000B1013008E9023108EA3B3408E3
:101CA600B000B10130082100B7072000310821003B
:101CB600B83D200069086A04031D6B2E08303406FF
:101CC600031D6B2E21003D0803196B2EBB01BB0AB9
:101CD60020003408B000B1013008F7003108F800E0
:101CE6008C316C24080021003B080319852E003036
:101CF600F700F8008C316C248E312100BB018B314A
:101D06004A23080020006B08031D08008B314A2374
:101D160008002100BE01853106258E3101308B3148
:101D2600A1238E3175082100BF007608C0008631D8
:101D360063268E318B3123238E31003A03199A2E76
:101D460001308B3161238E31003A031D9A2E01300A
:101D56008B31B2238E31003A031D9A2E01308B311E
:101D6600C3238E31003A03199A2EC1302000E700B2
:101D76006708F50001308B31D5238E3121004108EB
:101D860086004208870001082000E70021003F087E
:101D9600860040088700200067088100F22E013087
:101DA6002000E70067082100BE07FF2E3F08013E1E
:101DB6002000E70000302100403D2000E8006708D1
:101DC60086006808870021003E0881004030F70041
:101DD6000030F80001308D31BA258E31FF2E2100FA
:101DE60041088600420887000108803A0319D22E6E
:101DF600013A0319D92EFF2E01308F3104278E3177
:101E06009A2EF9000730F5007508F10079088B3134
:101E160090238F31063EA03E86008701011D152FB7
:101E26000130162F0030F6007608F80078080319FE
:101E3600422F0730F5007508F10079088B319023A1
:101E46008F31043EA03E860087010108F6007935F1
:101E5600F7000130F735FF3E031D2D2F7735013E84
:101E6600203E8600870176088100C830F500793566
:101E7600F6000130F635FF3E031D3D2F672F073074
:101E8600F5007508F10079088B3190238F31043EF7
:101E9600A03E860087010108F6007935F70001307B
:101EA600F735FF3E031D532F7735013E203E860052
:101EB6008701760881008830F5007935F600013013
:101EC600F635FF3E031D632F7635203E86008701DB
:101ED600750881000430F5000730F6007608F10039
:101EE60079088B319023063EA03E8600870175084F
:101EF600810608002000460886004708870044310E
:101F06000108C8004808CD00460886004708870033
:101F1600413106300106031DFE2F4608860047089C
:101F2600870081300106031DFE2F460886004708FC
:101F360087004231403FC800413FC9004908CA00F6
:101F46004A08CE00FF30CF00FF30D00021304E06C9
:101F5600031DBA2F5130C8004808F1004D088B31D7
:101F660070238F3172082000D0007108CA2F2230EA
:101F76004E06031DCB2F5130C8004808F1004D080E
:101F86008B3180238F3172082000D0007108CF007A
:101F9600D01FCF2FFF30080046088600470887006D
:101FA6004631403FC800413FC90049085002031D61
:101FB600DE2F48084F02031CEA2F46088600470812
:101FC60087004631403FCB00413FCC00EE2F500802
:101FD600CC004F08CB005108BF005208C0004C0887
:101FE600C2004B08C1000030C300C400C5018C31DB
:101FF600302400300800FF30080009340234293448
:102006000034013401340034803432340934043469
:10201600003400340234033400340034003409340C
:102026002134013401340034013422341C340034A8
:102036000734053481340334403400340134073422
:10204600053401340334403400340134063400349A
:10205600FF3409340134A1340134193401342934EC
:1020660040341534013425344034753408349534FD
:1020760040348134003419340134293440349134E5
:102086000034C034123401340034023400340034D5
:1020960000340834D83404343F3400340334003474
:1020A60001340234003401340E3403346334003412
:1020B6007534003473340034743400346F340034AF
:1020C6006D3400340A34033441340034633400344C
:1020D6006D34003465340034043403340934043474
:00000001FF
