:020000040000FA
:1000000021009513210065293F00EF08031D042AF4
:100010003D00101C10289721210012153D001010E2
:100020003D00901D1C280F08870090112000783992
:10003000031D1C285E2010282000121109008B17B8
:10004000202855309600AA30960095140000000034
:100050000800281E8428A413A5014830A400A41772
:100060000C308400203085008C30860020308700E2
:10007000A10803193F2812001E00A10338280C30E4
:1000800085208C308400203085002300151615153E
:1000900021201512951615151200930012009400D8
:1000A00011081F391F3C031995122120910A1108CC
:1000B0001F39031D4C289501200008000719FE2850
:1000C00020083C39343C031D29282810A811281287
:1000D000AC1F281421302C027F3903198A280630DE
:1000E0002D020319D52805302D020319F0280930F7
:1000F0002D020319F22808302D020319F7283D00BC
:100100000E1220000C30CE200C30A0004030A10098
:10011000A01708002D080319C128FF3E0319A028C5
:10012000FF3E0319BB28FF3E0319B128FF3E031908
:10013000C128FF3E0319B728FF3E0319C1287F28B5
:100140003D000E1220004830A0004030A100A01752
:10015000B2080319AF282021A81628160800A812F3
:10016000D128E330A81AE830A9000630E128E730AA
:10017000A9000130E128AF08031DC128A8154030AF
:10018000E128A81128120030E1283D000E122000BD
:100190002818D1280C21483085204830A400A41705
:1001A0000800A413A5010C30CC282F030319E8285C
:1001B000FF3E0319EC28FF3E031D7F28EE30A90007
:1001C0001230AA0032020318C5283208AA00C52836
:1001D000BF30A9001230E128D130A9001230E12847
:1001E000A814C5282811AE08031D2815C528C1303C
:1001F0002819013EA9000130AA00C52828180529A0
:100200000C210830241F0917CE28A81C0800A810AC
:100210002E083D0096000800A413A501A8192D2959
:1002200029088400813085004C308600203087000A
:10023000AA080319080012001E00A50AAA0318291B
:100240002E082300950191018936910C8936910C75
:100250008936910C9200200008004C308600203036
:10026000870020210301403C0319402941211E0041
:1002700014081E00910A2000A50AA50A25083329A2
:100280000800230015140000000013080800412195
:10029000532114085321910A0319920A11081F3996
:1002A000031D47290800F0000830F100F336F20C76
:1002B000720D7006091C60292330F306B130F20676
:1002C000F036F103031D56290800FC3099009030E8
:1002D0009B0051301A05513C031D69292300003051
:1002E000910002309200EC30F400F201F30147215A
:1002F000F403031D7729F208031D8929F308031D60
:100300008929031E892920008C1D89292100951720
:10031000002A270090309B0097213D008E0121008C
:1003200012150B173D008E158E1D93291F282100D5
:1003300012113D0093019001970114309100093092
:1003400092008401203085008C30870000301A0034
:10035000870BA7293D000E1796010E120E13901D54
:10036000B42990114021AF291630980020000C309C
:10037000A2004C30A6002030A300A700842812342D
:10038000013400340134FE34013400344034343458
:1003900012340134003401340034003400340134A8
:1003A000013409340234123400340134013400348D
:1003B0008034323409340434003400340034FE34E0
:1003C000013400340034003400340034003402348A
:1003D0000034003400340034053400341234033463
:1003E00030340034303400343034003430340034AD
:1003F000303400343034003430340034313400349C
:020000040001F9
:02000E000C0FD5
:02001000CE1F01
:00000001FF
