:020000040000FA
:100000002100951321004A298231042A5530960097
:10001000AA3096009514000000000800281E6928E8
:10002000A413A5014830A400A4170C30840020308C
:1000300085008C30860020308700A1080319242811
:1000400012001E00A1031D280C306A208C30840091
:10005000203085002300151615150620151295165B
:100060001515120093001200940011081F391F3C4F
:10007000031995120620910A11081F39031D312812
:100080009501200008000719E32820083C39343C7A
:10009000031D0E282810A8112812AC1F2814213087
:1000A0002C027F3903196F2806302D020319BA2854
:1000B00005302D020319D52809302D020319D72840
:1000C00008302D020319DC283D000E1220000C30F0
:1000D000B3200C30A0004030A100A01708002D086C
:1000E0000319A628FF3E03198528FF3E0319A028FF
:1000F000FF3E03199628FF3E0319A628FF3E031969
:100100009C28FF3E0319A62864283D000E122000FB
:100110004830A0004030A100A017B208031994286D
:100120000521A81628160800A812B628E330A81A38
:10013000E830A9000630C628E730A9000130C628FB
:10014000AF08031DA628A8154030C628A8112812FC
:100150000030C6283D000E1220002818B628F120D5
:1001600048306A204830A400A4170800A413A50151
:100170000C30B1282F030319CD28FF3E0319D128D5
:10018000FF3E031D6428EE30A9001230AA0032029F
:100190000318AA283208AA00AA28B630A9001230EB
:1001A000C628C830A9001B30C628A814AA282811C0
:1001B000AE08031D2815AA28B8302819013EA90049
:1001C0000130AA00AA282818EA28F1200830241FA4
:1001D0000917B328A81C0800A8102E083D00960097
:1001E0000800A413A501A819122929088400813048
:1001F00085004C30860020308700AA0803190800CB
:1002000012001E00A50AAA03FD282E08230095014E
:1002100091018936910C8936910C8936910C9200A6
:10022000200008004C3086002030870005210301A3
:10023000403C0319252926211E0014081E00910A9E
:100240002000A50AA50A250818290800230015146E
:100250000000000013080800262138211408382166
:10026000910A0319920A11081F39031D2C2908004D
:10027000F0000830F100F336F20C720D7006091C24
:1002800045292330F306B130F206F036F103031DA1
:100290003B290800FC30990090309B0051301A0532
:1002A000513C031D4E292300003091000230920082
:1002B000EC30F400F201F3012C21F403031D5C295E
:1002C000F208031D6E29F308031D6E29031E6E2913
:1002D00020008C1D6E2921009517002A8A213D00DF
:1002E0008E013D008E158E1D72293D00101C7B294C
:1002F0008A213D0010103D00901D87290F088700BE
:10030000901120007839031D872943207B29200084
:10031000121175293D009301900114309100840160
:10032000203085008C30870000301A00870B95291B
:100330003D000E1796010E120E13901DA22990116A
:1003400025219D291630980020000C30A2004C3049
:0A035000A6002030A300A7006928D2
:04036C001234013412
:1003700000340134FE340134003440343434123457
:1003800001340034013400340034003401340134C9
:10039000093402341B340034013401340034803415
:1003A000323409340434003400340034FE3401346F
:1003B0000034003409342134033400340034403430
:1003C000003400340134003400340034003402348A
:1003D0000034003400340034053400341234033463
:1003E00030340034303400343034003430340034AD
:1003F000303400343034003430340034313400349C
:020000040001F9
:02000E000C0FD5
:02001000CE1F01
:00000001FF
