:020000040000FA
:1000000021009513210048298231042A5530960099
:10001000AA3096009514000000000800281E6928E8
:10002000A413A5014830A400A4170C30840020308C
:1000300085008C30860020308700A1080319242811
:1000400012001E00A1031D280C306A208C30840091
:10005000203085002300151615150620151295165B
:100060001515120093001200940011081F391F3C4F
:10007000031995120620910A11081F39031D312812
:100080009501200008000719E12820083C39343C7C
:10009000031D0E282810A8112812AC1F2814213087
:1000A0002C027F3903196F2806302D020319BA2854
:1000B00005302D020319D32809302D020319D52844
:1000C00008302D020319DA283D000E1220000C30F2
:1000D000B3200C30A0004030A100A01708002D086C
:1000E0000319A628FF3E03198528FF3E0319A028FF
:1000F000FF3E03199628FF3E0319A628FF3E031969
:100100009C28FF3E0319A62864283D000E122000FB
:100110004830A0004030A100A017B208031994286D
:100120000321A81628160800A812B628E330A81A3A
:10013000E830A9000630C428E730A9000130C428FF
:10014000AF08031DA628A8154030C428A8112812FE
:100150000030C4283D000E1220002818B628EF20D9
:1001600048306A204830A400A4170800A413A50151
:100170000C30B1282F030319CB28FF3E0319CF28D9
:10018000FF3E031D64280301AA0032020318AA28B7
:100190003208AA00AA28B630A9001230C428C830F4
:1001A000A9001B30C428A814AA282811AE08031DD2
:1001B0002815AA28B8302819013EA9000130AA0044
:1001C000AA282818E828EF200830241F0917B32888
:1001D000A81C0800A8102E083D0096000800A413D3
:1001E000A501A819102929088400813085004C3008
:1001F000860020308700AA080319080012001E009C
:10020000A50AAA03FB282E0823009501910189362F
:10021000910C8936910C8936910C920020000800CF
:100220004C3086002030870003210301403C031935
:10023000232924211E0014081E00910A2000A50A6B
:10024000A50A25081629080023001514000000003F
:10025000130808002421362114083621910A0319B5
:10026000920A11081F39031D2A290800F0000830DE
:10027000F100F336F20C720D7006091C432923308D
:10028000F306B130F206F036F103031D39290800F8
:10029000FC30990051301A05513C031D4A29903019
:1002A0009B0023000030910002309200EC30F400FB
:1002B000F201F3012A21F403031D5A29F208031D58
:1002C0006D29F308031D6D29031E6D2920008C1D67
:1002D0006D29210095178231002A89213D008E0168
:1002E0003D008E158E1D71293D00101C7A29892133
:1002F0003D0010103D00901D86290F0887009011C9
:1003000020007839031D862943207A292000121104
:1003100074293D0093019001143091008401203034
:1003200085008C30870000301A00870B94293D002F
:100330000E1796010E120E13901DA1299011232164
:100340009C291630980020000C30A2004C30A600EA
:080350002030A300A70069287A
:04036C001234013412
:1003700000340134FE340134003440340934123482
:1003800002342034013400340034003400340134A9
:10039000093402341B340034013401340034803415
:1003A000323409340434003400340034FE3401346F
:1003B0000034003409342134033400340034403430
:1003C000003400340134003400340034003402348A
:1003D0000034003400340034053400341234033463
:1003E00030340034303400343034003430340034AD
:1003F000303400343034003430340034313400349C
:020000040001F9
:02000E000C0FD5
:02001000CE1F01
:00000001FF
