:020000040000FA
:1000000021009513210049298231042A5530960098
:10001000AA3096009514000000000800281E6928E8
:10002000A413A5014830A400A4170C30840020308C
:1000300085008C30860020308700A1080319242811
:1000400012001E00A1031D280C306A208C30840091
:10005000203085002300151615150620151295165B
:100060001515120093001200940011081F391F3C4F
:10007000031995120620910A11081F39031D312812
:100080009501200008000719E22820083C39343C7B
:10009000031D0E282810A8112812AC1F2814213087
:1000A0002C027F3903196F2806302D020319BB2853
:1000B00005302D020319D42809302D020319D62842
:1000C00008302D020319DB283D000E1220000C30F1
:1000D000B4200C30A0004030A100A01708002D086B
:1000E0000319A728FF3E03198528FF3E0319A128FD
:1000F000FF3E03199728FF3E0319A728FF3E031967
:100100009D28FF3E0319A72864283D000E122000F9
:100110004830A0004030A100A017B208031994286D
:100120000421A81628160800A816A812B728E3303C
:10013000A81AE830A9000630C528E730A900013028
:10014000C528AF08031DA728A8154030C528A81149
:1001500028120030C5283D000E1220002818B728AC
:10016000F02048306A204830A400A4170800A413E7
:10017000A5010C30B2282F030319CC28FF3E031928
:10018000D028FF3E031D64280301AA003202031891
:10019000AB283208AA00AB28B630A9001230C52817
:1001A000C830A9001B30C528A814AB282811AE08F8
:1001B000031D2815AB28B8302819013EA9000130CD
:1001C000AA00AB282818E928F0200830241F0917B6
:1001D000B428A81C0800A8102E083D0096000800AE
:1001E000A413A501A81911292908840081308500CC
:1001F0004C30860020308700AA080319080012003E
:100200001E00A50AAA03FC282E08230095019101CF
:100210008936910C8936910C8936910C9200200018
:1002200008004C3086002030870004210301403C48
:100230000319242925211E0014081E00910A2000FC
:10024000A50AA50A2508172908002300151400008F
:100250000000130808002521372114083721910ACE
:100260000319920A11081F39031D2B290800F000F9
:100270000830F100F336F20C720D7006091C4429A7
:100280002330F306B130F206F036F103031D3A29AC
:100290000800FC30990051301A05513C031D4B29D0
:1002A00090309B0023000030910002309200EC302F
:1002B000F400F201F3012B21F403031D5B29F20882
:1002C000031D6E29F308031D6E29031E6E292000ED
:1002D0008C1D6E29210095178231002A8D213D0049
:1002E0008E013D008E158E1D72293D00101C7E2949
:1002F0002000281B01008D213D0010103D00901DA5
:100300008A290F088700901120007839031D8A2957
:1003100043207E292000121175293D009301900190
:10032000143091008401203085008C30870000302B
:100330001A00870B98293D000E1796010E120E1316
:10034000901DA52990112421A02916309800200085
:100350000C30A2004C30A6002030A300A700692872
:04036C001234013412
:1003700000340134FE340134003440343434123457
:1003800001340034013400340034003400340134CA
:10039000093402341B340034013401340034803415
:1003A000323409340434003400340034FE3401346F
:1003B0000034003409342134033400340034403430
:1003C000003400340134003400340034003402348A
:1003D0000034003400340034053400341234033463
:1003E00030340034303400343034003430340034AD
:1003F000303400343034003430340034313400349C
:020000040001F9
:02000E000C0FD5
:02001000CE1F01
:00000001FF
